:020000040800F2
:1000000000500020C53F0008111500081515000814
:10001000191500081D150008211500080000000032
:10002000000000000000000000000000913B0008FC
:100030002515000800000000313C0008753C000850
:100040000D4000080D4000080D4000080D4000085C
:100050000D4000080D4000080D4000080D4000084C
:100060000D4000080D4000080D4000080D4000083C
:100070000D4000080D4000080D4000080D4000082C
:100080000D4000080D4000080D4000080D4000081C
:100090000D4000080D4000080D4000080D4000080C
:1000A0000D400008291500080D4000080D4000080B
:1000B0000D4000080D4000080D4000080D400008EC
:1000C0000D4000080D4000080D4000080D400008DC
:1000D0000D4000080D4000080D4000080D400008CC
:1000E0000D4000080D4000080D4000080000000011
:1000F0000000000000000000000000000000000000
:0C01000000000000000000005FF808F1A3
:10011000044B05481B1A062B02D9044B03B11847A0
:10012000704700BF7700002074000020000000002E
:1001300005490648091A891001EBD171491002D00E
:10014000034B03B11847704774000020740000206F
:100150000000000010B5064C237843B9FFF7D8FF24
:10016000044B13B10448AFF300800123237010BD8A
:1001700074000020000000001040000808B5084B83
:100180001BB108490848AFF300800848036813B959
:10019000BDE80840CCE7064B002BF9D09847F7E7BD
:1001A00000000000780000201040000874000020CB
:1001B0000000000070B50F4E0F4D761BB61018BF33
:1001C000002405D0013455F8043B9847A642F9D1E4
:1001D0000A4E0B4D03F01CFF761BB61018BF00240F
:1001E00006D0013455F8043B9847A642F9D170BDBA
:1001F00070BD00BFD4410008D4410008D8410008B8
:10020000D4410008844641EA000313F0030349D1B6
:10021000403A23D30B6803604B6843608B6883606C
:10022000CB68C3600B6903614B6943618B69836170
:10023000CB69C3610B6A03624B6A43628B6A836258
:10024000CB6AC3620B6B03634B6B43638B6B836340
:10025000CB6BC36340304031403ADBD230320BD3FA
:100260000B6803604B6843608B688360CB68C36036
:1002700010301031103AF3D20C3205D351F8043B50
:1002800040F8043B043AF9D2043208D0D2071CBF2C
:1002900011F8013B00F8013B01D30B880380604655
:1002A000704700BF082A13D38B07B1D010F00303A7
:1002B000AED0C3F10403D21ADB071CBF11F8013B17
:1002C00000F8013BA4D331F8023B20F8023B9FE742
:1002D000043AD9D3013A11F8013B00F8013BF9D2B5
:1002E0000B7803704B7843708B788370604670474F
:1002F00070B4840746D0541E002A41D0CDB20346C4
:1003000002E0621EE4B3144603F8015B9A07F8D1D9
:10031000032C2ED9CDB245EA05250F2C45EA05451B
:1003200019D9264603F11002103E0F2E42F8105C38
:1003300042F80C5C42F8085C42F8045C02F11002DE
:10034000F2D8A4F1100222F00F0204F00F041032D0
:10035000032C13440DD91E462246043A032A46F8BC
:10036000045BFAD8221F22F003020432134404F083
:1003700003042CB1C9B21C4403F8011BA342FBD1F6
:1003800070BC704714460346C2E700BFFEE700BFDB
:1003900003685A004CBF43F0004323F00043184465
:1003A000704700BF61B32DE9F84F01F1FF3A904665
:1003B0000646D146002707EB090404EBD474641009
:1003C000E50071190846FFF7E3FFA245834605F1F2
:1003D0000800304409D0FFF7DBFFC34500F1FF30D0
:1003E00005D8404509D2671CE5E7C34505D9A742B2
:1003F00002D004F1FF39DEE700210846BDE8F88F9E
:1004000008467047012807D0022807D0044B00286F
:100410000CBF1846002070470248704702487047DA
:10042000190B00081D0B0008210B000830B5254BE7
:1004300083B004468D1E7BB301A92846AFF300802C
:1004400020B301992A46FFF7ADFF0146F0B1FFF74F
:100450009FFF4B68A064012B12D0002B01F1040018
:1004600021DBFFF795FF0023E06423650368002B81
:100470001DDBFFF78DFF00232061184603B030BD60
:10048000002323610523184603B030BD00232361F8
:100490000923184603B030BD0B490C4B0846591AC6
:1004A000C9100191CEE70123E0642365DEE7C3F3C1
:1004B0000360FFF7A7FF0028206114BF0023092372
:1004C000DBE700BF00000000E4400008D441000862
:1004D000036810B5DA07044606D49B0700F148000C
:1004E00009D500F05BFC2368590709D51A070ED51A
:1004F000DB0613D510BD00F049FC23685907F5D47D
:1005000004F1D00000F052FC23681A07F0D404F57F
:10051000A87000F053FC2368DB06EBD404F5E87008
:10052000BDE8104000F08EBC03680BB11844704762
:100530001846704709207047704700BF70B50446E1
:100540000D4608E02A6C2369626121462A46012093
:100550009847082808D1296C2046FFF767FF064610
:100560000028EFD000F086FE0728FBD13046296C2A
:10057000FFF7E2FF281D00F0FDFB00BF2DE9F0476B
:100580000646ADF5727D03AD0C1D17460FCC0FC5A9
:100590000FCC0FC50FCC0FC594E80F0002ACD6F8F6
:1005A0000C80D6F8189085E80F0000233046216CA7
:1005B0002360FFF73BFF0546002F14BF0A270927DA
:1005C0007DB1A36B47F010018DE8100232466364E1
:1005D00001203346C04778BB28460DF5727DBDE843
:1005E000F087236C4FF4F072736121467AA8FFF70D
:1005F00009FE33697AAA314638469847889B824675
:100600008DE8100239466364324633460120C04704
:1006100090B94FF4F0727AA92046FFF7F3FDBAF1D2
:10062000080F06D1216C3046FFF700FF0927054669
:10063000C6E7BAF1070F04D009200DF5727DBDE8B9
:10064000F0872846216CFFF777FF03A800F092FBA4
:10065000406C7047F0B5CB6BF9B00B640E1D01AD6B
:100660000F4604460FCE0FC50FCE0FC50FCE0FC5D8
:1006700096E80F004FF0FF3685E80F00009606E081
:1006800023696A46214698470828054608D11099EB
:100690002046FFF7CBFE0028F2D0092079B0F0BD4C
:1006A0006846FFF715FF062DF7D139462046FFF7BC
:1006B00045FF00BF30B4DD6BC160826119461D6427
:1006C000002230BC5AE700BF70B54369C6680B64AE
:1006D00026B10122FFF752FF00F0CCFD03690A4664
:1006E00004460D46014602209847072807D00828EF
:1006F00003D129462046FFF721FF00F0BBFD30461D
:10070000296CFFF719FF281D00F034FBC2682AB1DD
:1007100010B4CC6B00220C6410BC2FE79AE700BF2A
:10072000704700BF836813B1014601201847704726
:1007300000B5042907D8DFE801F00309060909001C
:100740000BB90F2A05D902205DF804FB01205DF8E2
:1007500004FB00EB820252681846019B1A605DF8A8
:1007600004FB00BF10B584B0002303AC0A4600941C
:100770001946FFF7DDFF039804B010BD00B504294A
:1007800007D8DFE801F00309060909000BB90F2AB1
:1007900005D902205DF804FB01205DF804FB0199F6
:1007A00000EB82020968184651605DF804FB00BF47
:1007B00010B584B004AC44F8042D00230A4600941C
:1007C0001946FFF7DBFF04B010BD00BFF0B5D36BD7
:1007D000ADF50F7D1364151D17AC07460E460FCD02
:1007E0000FC40FCD0FC40FCD0FC495E80F004FF00D
:1007F000FF3584E80F00169511E016A86A46FFF74A
:10080000D7FF314616A8B84780B9049B16AA694697
:10081000082098470528044609D0092806D02699BB
:100820006846FFF703FE0C210028E6D0092416A82D
:10083000FFF74EFE20460DF50F7DF0BD2DE9F04F80
:10084000CC6C914622688BB004340D460792089414
:1008500000F0030B1E46002B64D112020323079203
:100860008DF825608DF824302B6DBBF1020F08BF89
:10087000AC6B13F0010343D100F00800C2B2039245
:1008800001932768002F3DD0022E47D02788B4F867
:1008900002800434AB6C28F0010A0F2148469A44C8
:1008A000FFF760FF824537D827F001039A4450458F
:1008B0002CBF002001204FEA480808F0020807F08A
:1008C000010748EA0708B8F1010F41D038D3B8F161
:1008D000020F1DD1236823F000420292BBF1000FEA
:1008E00079D130B10399002900F08180002A00F00D
:1008F000A880002B79DB029B013304EB8304C0E763
:1009000000230193022E40DDFFF714FE002842D0A1
:1009100009200BB0BDE8F08F0020CCE7D4F80480AC
:100920000834B7E7022B9FDC130CD9B212048DF800
:100930002530022304EB810407928DF8243093E7DD
:10094000BBF1000F02D0002840F0B080043498E7DB
:10095000BBF1000F26D1B0B194E80C00991C4FEA0E
:10096000D272D5D005F158010133069100F0948080
:10097000201DFFF7D9FD06AB01462846AFF30080E6
:10098000002840F0B88008347BE707A9484600F00B
:10099000F3FA0028BCD1019B002B5CD108200BB0DE
:1009A000BDE8F08F0D2148462F6AFFF7DBFE874236
:1009B000E9D1AB6A9C42E6D12046FFF7E9FC0F2162
:1009C00002464846FFF7F4FE48462A460021FFF754
:1009D000EFFE07209DE70D2148462F6AFFF7C2FE74
:1009E000874248D02368002B85DA043483E7029BD2
:1009F0003BB305F15803271DCDF810B0DDF80C808E
:100A0000A346DDF808A01C46059602E0B245B046B4
:100A100016D038460694FFF787FD06AB0146002244
:100A20002846AFF3008008F1010604370028EDD016
:100A3000029B5C464345DDF810B0059ED2D100E034
:100A40005C4648460D21FFF78DFE069B2862AC628E
:100A50006B6206205DE70F214846FFF783FE0E21FB
:100A600002464846FFF7A4FE48462A4A0F21FFF7F0
:100A70009FFE07204DE7AB6A9C42B3D10422029946
:100A80000027A318A962EF622A636B632368BB4245
:100A90001FDB012301932EE748460D21FFF762FE7D
:100AA0002862069B6B62AC62062032E72046FFF7A5
:100AB0006FFC04340646AC632846AFF30080002880
:100AC0003FF426AF484632460F21FFF771FE07205C
:100AD0001FE70846013004EB8000FFF759FC0F21A7
:100AE00002464846FFF764FE48462A463946FFF765
:100AF0005FFE07200DE707460D214846FFF732FE4F
:100B0000022F2862CDD12B46069A43F82C2F6B6218
:100B1000C9E700BF0000000000238FE601238DE637
:100B200002238BE6F0B50446C5B004290DD8DFE8F2
:100B300001F057030C310F00012B4FEA124695B21A
:100B400066D17219102A40F29F80022045B0F0BD94
:100B5000002BFAD1102AF8D82368D80600F1C980F2
:100B600022AE3046019200F077F9A06B019A002383
:100B7000012505FA03F1114203D00168043046F85B
:100B800023100133042BF4D1A063304600F05AF94E
:100B90000020DBE7032BD8D1150C97B2EB19102BF3
:100BA000D3D823681E0700F1B88022AE30467F00FC
:100BB00000F026F906EBC5027B1EA56B57B129464E
:100BC000043A51F8040B013B42F8040F581CF8D1C9
:100BD00005EB87053046A56300F0F0F80020B5E787
:100BE000002BB2D1A56B97B2201D012606FA03F1A6
:100BF000394203F1010302D0296804350160102B4A
:100C000000F10400F2D112F400503BD1A5639DE73E
:100C1000052B9AD17719202F97D80F2E65D92F46FB
:100C2000002D48D12A460027002AA06B71DD00EB79
:100C3000C202014644A800EBC6008C3851F8045BA0
:100C4000914240F8045FF9D1084697B13246102E20
:100C500044A938BF102201EBC202A2F5C472790088
:100C6000043A00EB810150F8045B814242F8045FD2
:100C7000F9D1012B47D00F2EA16332D917B102A8A9
:100C800000F094F8002061E70F2E3FF65EAF0027DA
:100C90002268D1070DD522F00101052B21600193B7
:100CA000204652D022F0030240F8482B00F072F8A0
:100CB000019B002F51D02268510736D4012B3ED022
:100CC0000F2E06D822A8019300F06CF8019B002F8C
:100CD000A8D002A8019300F06DF8019BC6F11002A4
:100CE000A2E722A800F05AF8C8E7102FCFD9103F8A
:100CF000CEE723F01003236004F5E870019200F0C2
:100D0000ABF8019A2CE70431A16322A800F03EF869
:100D1000B8E7002F9AD10146ABE723F00803236020
:100D200004F5A87000F06CF83FE7204622F00402BA
:100D300040F8D02B019300F03DF8019BBEE722A8BC
:100D4000019300F027F8019BC8E741F0020140F849
:100D5000481B00F027F8019BABE7012B03D00F2EB7
:100D60003FF660AFAEE722A8019300F013F8019BB5
:100D700058E700BF00F1340191E838009C46A646D0
:100D80004CF8045D90E8FF0FE54600BD90EC210BA8
:100D9000704700BF80EC210B704700BF90EC200B28
:100DA000704700BF80EC200B704700BFD0EC200BD9
:100DB000704700BFC0EC200B704700BFF0EC020191
:100DC000F0EC0211F0EC0221F0EC0231F0EC024107
:100DD000F0EC0251F0EC0261F0EC0271F0EC0281F7
:100DE000F0EC0291F0EC02A1F0EC02B1F0EC02C1E7
:100DF000F0EC02D1F0EC02E1F0EC02F1704700BF40
:100E0000E0EC0201E0EC0211E0EC0221E0EC023146
:100E1000E0EC0241E0EC0251E0EC0261E0EC027136
:100E2000E0EC0281E0EC0291E0EC02A1E0EC02B126
:100E3000E0EC02C1E0EC02D1E0EC02E1E0EC02F116
:100E4000704700BFB0FC0181B0FC0191B0FC01A172
:100E5000B0FC01B1704700BFA0FC0181A0FC019172
:100E6000A0FC01A1A0FC01B1704700BFEC4600B599
:100E70002DE900502DE9FF1F4FF000032DE90C0074
:100E800001A9FFF7E7FBDDF840E012B0704700BFB3
:100E9000EC4600B52DE900502DE9FF1F4FF000038F
:100EA0002DE90C0001A9FFF70FFCDDF840E012B0BE
:100EB000704700BFEC4600B52DE900502DE9FF1F3B
:100EC0004FF000032DE90C0001A9FFF71FFCDDF82E
:100ED00040E012B0704700BFEC4600B52DE900506D
:100EE0002DE9FF1F4FF000032DE90C0001ABFFF7C8
:100EF000E1FBDDF840E012B0704700BFEC4600B502
:100F00002DE900502DE9FF1F4FF000032DE90C00E3
:100F100001AAFFF75BFCDDF840E012B0704700BFAC
:100F2000037A1BB9437A43B9B02070475A1E03684D
:100F300002721A020260180E70474268013B10B438
:100F4000437213680321141D01721A024460026087
:100F500010BC180E704700BF00B585B003AA00236F
:100F6000009219460C22FFF7E3FB039805B05DF8E9
:100F700004FB00BFF0E700BF2DE9F04306460D4635
:100F800085B04FF000082846FFF7CAFFB028044696
:100F900000F0B48020F07F0313F0FF0320D000F0B6
:100FA000F003802B7AD0902B35D0A02B48D0B02BDB
:100FB0005CD0C02B00F0898000F0F803D02B0BD15F
:100FC00000F00702013242F40022052301213046DD
:100FD000FFF7A8FD0028D6D0092005B0BDE8F083B2
:100FE0000DF10C0919468700CDF800900D2230460E
:100FF000FFF79EFBFFB2039B043760064CBFDF1B6D
:10100000FF180023CDF8009019460D2230460397B3
:10101000FFF7B4FBB7E700F00D030D2BDCD003AFF7
:10102000002300F00F02194600973046FFF780FBBF
:101030000023009719460D223046FFF79FFBA2E7D9
:10104000C2434FF47F6302F0070243FA02F2010742
:1010500002EA03024FF0000348BF42F480421946FF
:101060003046FFF75FFD0028B6D18CE7B1284AD0A3
:10107000B22853D0B32800F0818000F0FC03B42BD9
:10108000AAD000F007020132012342F400221946DF
:101090003046FFF747FD00289ED174E72846FFF74A
:1010A0003FFF24022043B0F5004F95D004010023F8
:1010B000A2B219463046FFF735FD00288CD114F452
:1010C000004F18BF4FF001085DE7C62862D0C7285F
:1010D0006CD000F0F803C02B7BD0C82800F09180C2
:1010E000C9287FF479AF2846FFF71AFF020300F002
:1010F0000F0002F470220130024366E7B8F1000FDE
:101100006ED0002069E72846FFF70AFF0246002854
:101110003FF462AF10F0F003B9D05DE700230DF1AA
:101120000C090D221946CDF800903046FFF700FB60
:101130002846FFF7F5FE02064FF002040CD5039B8C
:1011400000F07F00A040034428460393FFF7E8FE29
:10115000030604F10704F2D4039B00F07F0000FAB9
:1011600004F203F5017400231444CDF800901946ED
:101170000D2230460394FFF701FB04E72846FFF7F2
:10118000CFFE010300F00F0001F47021421C012387
:101190000A437CE72846FFF7C3FE010300F00F0077
:1011A00001F47021421C03230A4370E72846FFF72D
:1011B000B7FE024600283FF40FAF10F0F0037FF4B3
:1011C0000BAF04213046FFF7ADFC00287FF404AFDD
:1011D000D9E600F00F020132032342F4202256E741
:1011E00003AC43460E22414600943046FFF7A0FA76
:1011F0000094304643460F224146FFF7BFFA40466F
:10120000EBE62846FFF78CFE00F0F00200F00F033B
:101210001032013343EA0232D7E600BF10B5C36C87
:1012200084B003205A688DF80C00DC791202083370
:10123000084601A901928DF80D400293FFF79CFE2C
:1012400004B010BD08B5FFF795FE806C08BD00BF67
:1012500008B5FFF78FFEC36CD87903EB8000083028
:1012600008BD00BF08B500F005F800BF08B5FFF7DE
:10127000F9FF00BF08B5062000F088F80120FFF74D
:1012800085F800BF38B5446C0CB1002038BD802112
:10129000054600F0AFF8686448B12346224600E0F6
:1012A000686CC2500433802BFAD1002038BD4FF057
:1012B000FF3038BD1F29F8B509D8446C07461646DB
:1012C0000D464CB154F8250044F82560F8BD1622AF
:1012D00002604FF0FF30F8BDFFF7D4FF08B97C6C17
:1012E000F0E74FF0FF30F8BD1F2938B521D8426C28
:1012F00005460C469AB152F8213083B1012B0CD02F
:10130000591C06D00025204642F82450984728460C
:1013100038BD16230360012038BD002038BD2846A3
:1013200000F066F8224601462846BDE8384000F045
:101330004BB8162303604FF0FF3038BD1F291ED86D
:1013400038B5436C05460C46A3B153F8242003EB93
:1013500084036AB1511C09D0012A05D0002520461A
:101360001D609047284638BD032038BD022038BD97
:10137000012038BDFFF786FF20B96B6CE5E74FF021
:10138000FF3070474FF0FF3038BD00BF024B0146C1
:101390001868FFF7A9BF00BF00000020024B0A46F3
:1013A00001461868FFF786BF00000020014B18684F
:1013B000FFF768BF00000020024B01461868FFF7E6
:1013C000BDBF00BF0000002038B50B46074C0546E6
:1013D000114618460023236000F084F8431C00D017
:1013E00038BD2368002BFBD02B6038BD5422002071
:1013F00000F070B870B5CD1C25F0030508350C2D34
:1014000038BF0C25002D06463BDBA94239D82749B9
:101410000A6852B113685B1B04D436E023685B1B77
:101420001AD522465468002CF8D149681F4C00296F
:1014300036D02946304600F03BF8431C21D0C41C6E
:1014400024F00304A04205D0211A304600F030F801
:10145000013016D0256004E00B2B0DD923601C440D
:10146000256004F10B0020F00700231DC31A02D0F1
:101470005A42E25070BD70BD94420ED06368536012
:10148000EFE70C233360002070BD0B2B03D814460C
:1014900053680B60E5E71446E0E713461446F8E7A7
:1014A000304600F005F86060C3E700BF9000002000
:1014B00038B5074C002305460846236000F01AF8AB
:1014C000431C00D038BD2368002BFBD02B6038BDF7
:1014D00054220020024B58221A604FF0FF30704710
:1014E00054220020024B58221A604FF0FF30704700
:1014F00054220020044A05491368002B08BF0B46FC
:1015000018441060184670479800002058220020A8
:10151000704700BFFEE700BFFEE700BFFEE700BF69
:10152000FEE700BF704700BF08B5024800F080F832
:1015300008BD00BFD021002000B583B0114B9A69CF
:1015400042F001029A619A6902F001020092009A47
:10155000DA6942F08052DA61DB6903F0805301936B
:10156000019B00220F216FF0010000F0FDFD064AF3
:10157000536823F0E06343F08063536003B05DF889
:1015800004FB00BF001002400000014000B589B01C
:1015900000220146192000F0E7FD192000F016FE98
:1015A000144B9A6942F400629A619B6903F40063E8
:1015B0000193019B02A903A800F0A8FC00F096FC8F
:1015C0000D4BA3FB00239B0C013B0C480C4A026013
:1015D00040F2E732C260436000230361836000F0A1
:1015E00019F918B9054800F00FF800E0012009B01A
:1015F0005DF804FB0010024083DE1B43D021002075
:10160000002C0140704700BF0268D36843F001031B
:10161000D3600268136843F0010313600020704731
:10162000704700BF704700BF704700BF704700BFE2
:1016300010B5044603681A6912F0020F17D0DA6871
:1016400012F0020F13D06FF002021A610123037728
:1016500003689B6913F0030F02D0FFF7E3FF04E078
:10166000FFF7DEFF2046FFF7DFFF00232377236825
:101670001A6912F0040F19D0DA6812F0040F15D0AD
:101680006FF004021A610223237723689B6913F425
:10169000407F03D02046FFF7C5FF05E02046FFF757
:1016A000BFFF2046FFF7C0FF0023237723681A6996
:1016B00012F0080F19D0DA6812F0080F15D06FF089
:1016C00008021A61042323772368DB6913F0030FF0
:1016D00003D02046FFF7A6FF05E02046FFF7A0FF56
:1016E0002046FFF7A1FF0023237723681A6912F031
:1016F000100F19D0DA6812F0100F15D06FF0100229
:101700001A61082323772368DB6913F4407F03D031
:101710002046FFF787FF05E02046FFF781FF2046C0
:10172000FFF782FF0023237723681A6912F0010F65
:1017300009D0DA6812F0010F05D06FF001021A61CA
:10174000204602F035FC23681A6912F0800F09D098
:10175000DA6812F0800F05D06FF080021A6120461F
:1017600000F076F823681A6912F0400F09D0DA68A1
:1017700012F0400F05D06FF040021A612046FFF7CB
:1017800055FF23681A6912F0200F09D0DA6812F0A9
:10179000200F05D06FF020021A61204600F056F8A5
:1017A00010BD00BF03681A4A90420AD0B0F1804FC2
:1017B00007D0A2F59432904203D002F580629042A5
:1017C00003D123F070034A681343114A90420AD0B0
:1017D000B0F1804F07D0A2F59432904203D002F5C9
:1017E0008062904203D123F44073CA68134323F00C
:1017F00080034A69134303608B68C3620B6883628A
:10180000034B984201D10B69036301234361704785
:10181000002C0140B8B110B5044690F83D3013F0EB
:10182000FF0F04D1002380F83C30FFF7EBFE0223CA
:1018300084F83D30211D2068FFF7B4FF012384F8B0
:101840003D30002010BD0120704700BF704700BF31
:10185000704700BF08B5074A136843F010031360D0
:10186000032000F06FFC0020FFF790FEFFF764FEFE
:10187000002008BD00200240034A1368034909788C
:101880000B441360704700BF10220020640000204A
:10189000014B1868704700BF1022002082B0084B2F
:1018A0001B68084AA2FB03235B0A00FB03F00190BC
:1018B00000BF019B5A1E0192002BF9D102B0704764
:1018C00068000020D34D621070B582B004460368F2
:1018D00013F0010F6BD0A84B5B6803F00C03042BD3
:1018E0000AD0A54B5B6803F00C03082B0DD1A24B6B
:1018F0005B6813F4803F08D09F4B1B6813F4003FD4
:1019000055D06368002B52D1B8E16368B3F5803FCE
:1019100005D1994A136843F48033136026E063B914
:1019200003F1804303F504331A6822F480321A600D
:101930001A6822F480221A6018E0B3F5A02F0CD1A7
:1019400003F18043A3F53C331A6842F480221A6005
:101950001A6842F480321A6008E0874B1A6822F451
:1019600080321A601A6822F480221A6063687BB1A0
:10197000FFF78EFF054605E0FFF78AFF401B64284E
:1019800000F27E817C4B1B6813F4003FF4D00EE024
:10199000FFF77EFF054605E0FFF77AFF401B64284E
:1019A00000F27081744B1B6813F4003FF4D123687C
:1019B00013F0020F50D0704B5B6813F00C0F0AD07D
:1019C0006D4B5B6803F00C03082B16D16A4B5B6808
:1019D00013F4803F11D1684B1B6813F0020F03D042
:1019E0002369012B40F05081634A136823F0F80308
:1019F000616943EAC10313602EE02369D3B1012278
:101A00005E4B1A60FFF744FF054605E0FFF740FF15
:101A1000401B022800F23A81574B1B6813F0020F5B
:101A2000F4D0554A136823F0F803616943EAC1030F
:101A3000136011E00022514B1A60FFF729FF0546A1
:101A400005E0FFF725FF401B022800F221814A4BE9
:101A50001B6813F0020FF4D1236813F0080F29D08C
:101A6000A369ABB10122464B1A60FFF711FF05468F
:101A700005E0FFF70DFF401B022800F20B813E4BF3
:101A80005B6A13F0020FF4D00120FFF707FF11E0AB
:101A900000223B4B1A60FFF7FBFE054605E0FFF70F
:101AA000F7FE401B022800F2F780334B5B6A13F00D
:101AB000020FF4D1236813F0040F00F089802E4B3D
:101AC000DB6913F0805F0BD12B4BDA6942F0805257
:101AD000DA61DB6903F080530193019B012500E08B
:101AE0000025284B1B6813F4807F13D1254A136807
:101AF00043F480731360FFF7CBFE064605E0FFF763
:101B0000C7FE801B642800F2C9801E4B1B6813F4BB
:101B1000807FF4D0E368012B05D1174A136A43F0A4
:101B20000103136222E063B903F1804303F5043338
:101B30001A6A22F001021A621A6A22F004021A6278
:101B400014E0052B09D10C4B1A6A42F004021A6208
:101B50001A6A42F001021A6208E0074B1A6A22F080
:101B600001021A621A6A22F004021A62E368CBB117
:101B7000FFF78EFE06460FE00010024000004242D2
:101B80008004424200700040FFF782FE801B41F259
:101B90008833984200F28480494B1B6A13F0020F8D
:101BA000F2D00FE0FFF774FE064606E0FFF770FE86
:101BB000801B41F28833984274D8414B1B6A13F062
:101BC000020FF3D125B13E4AD36923F08053D3618C
:101BD000E369002B68D03A4A526802F00C02082AE6
:101BE00064D0022B37D10022364B1A60FFF750FE2B
:101BF000054604E0FFF74CFE401B022858D8304B46
:101C00001B6813F0007FF5D1236AB3F5803F06D13E
:101C10002B494B6823F40032A36813434B602848D8
:101C2000436823F47411236A626A13430B434360CD
:101C30000122244B1A60FFF72BFE044604E0FFF755
:101C400027FE001B022835D81D4B1B6813F0007FB0
:101C5000F5D0002031E000221A4B1A60FFF718FE81
:101C6000044604E0FFF714FE001B022824D8144B9E
:101C70001B6813F0007FF5D100201EE001201CE05E
:101C800003201AE0032018E0012016E0032014E0EE
:101C9000032012E0032010E003200EE003200CE0FC
:101CA00003200AE0032008E0002006E0012004E011
:101CB000032002E0032000E0032002B070BD00BF5B
:101CC000001002406000424230B486B0164D02ACB3
:101CD00028686968AA68EB680FC42B8AADF80430DD
:101CE000124B5B6803F00C02082A19D1C3F383423C
:101CF00006A90A4412F8100C13F4803F0CD00B4BC9
:101D00005B68C3F340430B4413F8142C084B03FBEC
:101D100000F0B0FBF2F004E0064B03FB00F000E043
:101D2000034806B030BC704728400008001002404D
:101D300000127A0000093D0070B5654B1B6803F086
:101D400007038B420BD2624A136823F007030B434D
:101D50001360136803F00703994240F0A8800368FA
:101D600013F0020F17D013F0040F04D0594A536830
:101D700043F4E0635360036813F0080F04D0554A3E
:101D8000536843F460535360524C636823F0F0028D
:101D90008368134363600D460446036813F0010F24
:101DA0004DD04268012A05D14A4B1B6813F4003F0D
:101DB0000DD17EE0022A05D1464B1B6813F0007F4F
:101DC00005D178E0434B1B6813F0020F75D04149F1
:101DD0004B6823F0030313434B60FFF759FD06469E
:101DE0006368012B0ED106E0FFF752FD801B41F224
:101DF0008833984263D8374B5B6803F00C03042B9D
:101E0000F2D11CE0022B15D106E0FFF741FD801B4B
:101E100041F28833984254D82E4B5B6803F00C0390
:101E2000082BF2D10BE0FFF733FD801B41F2883322
:101E3000984248D8274B5B6813F00C0FF3D1244B22
:101E40001B6803F007039D420AD2214A136823F05E
:101E500007032B431360136803F007039D4234D13B
:101E6000236813F0040F06D01A494B6823F4E0628C
:101E7000E36813434B60236813F0080F07D0154A3B
:101E8000536823F46053216943EAC1035360FFF7A9
:101E90001BFF104B5B68C3F303130F4AD35CD8409E
:101EA0000E4B18600020FFF771FB002070BD012071
:101EB00070BD012070BD012070BD012070BD0320E8
:101EC00070BD032070BD032070BD012070BD00BF38
:101ED000002002400010024064400008680000201A
:101EE000014B1868704700BF6800002008B5FFF775
:101EF000F7FF044B5B68C3F3C223034AD35CD840AB
:101F000008BD00BF00100240744000080F230360AA
:101F10000B4B5A6802F0030242605A6802F0F0026A
:101F200082605A6802F4E062C2605B68DB0803F416
:101F3000E0630361034B1B6803F007030B6070470A
:101F40000010024000200240F0B583B00026344665
:101F5000D5E00122A2400B6813409A4240F0CE80A7
:101F60004D68122D2DD00BD8022D27D003D85DB38C
:101F7000012D1ED035E0032D30D0112D1BD030E0C7
:101F8000614FBD4220D008D8A7F58017BD421BD0B5
:101F900007F58037BD4224D116E05C4FBD4213D017
:101FA00007F58037BD420FD0A7F58017BD4218D185
:101FB0000AE0CE6815E0CE68043612E0CE68083636
:101FC0000FE0CE680C360CE08D684DB1012D02D1CA
:101FD0000261082605E04261082602E0002600E0D2
:101FE0000426FF2B01D8864601E000F1040EFF2BEA
:101FF00001D8A20002E0A4F108029200DEF800700D
:102000000F25954027EA050506FA02F22A43CEF885
:1020100000204A6812F0805F70D03D4A956945F013
:1020200001059561926902F001020192019AA708E7
:10203000BD1C384A52F8255004F0030292004FF0BC
:102040000F0E0EFA02FE25EA0E0E334DA8420DD0F9
:1020500005F58065A8420BD005F58065A84209D03A
:1020600005F58065A84207D1032506E0002504E0B8
:10207000012502E0022500E0042505FA02F24EEAFD
:1020800002020237234D45F827204A6812F4803FA8
:1020900005D005F580652A681A432A6004E01F4DC3
:1020A0002A6822EA03022A604A6812F4003F04D038
:1020B0001A4D6A681A436A6004E0184D6A6822EA99
:1020C00003026A604A6812F4801F04D0134DAA68A4
:1020D0001A43AA6004E0114DAA6822EA0302AA602A
:1020E0004A6812F4001F04D00C4DEA681343EB60F9
:1020F00004E00A4DEA6822EA0303EB6001340F2C86
:102100007FF627AF03B0F0BD0000211000003110B2
:10211000001002400000014000080140000401409E
:102120008368194201D0012070470020704700BF2A
:102130000AB101617047090401617047C3685940E1
:10214000C1607047074AD36823F4E0631B041B0C8B
:10215000000200F4E060184340F0BF6040F400303B
:10216000D060704700ED00E030B4164BDB68C3F37D
:102170000223C3F10704042C28BF04241D1D062DCF
:1021800001D9DD1E00E00025012303FA04F4013C1F
:102190002140A940AB40013B1A400A43002806DA1F
:1021A00000F00F001201D2B2074B1A5407E01201DF
:1021B000D2B200F1604000F5614080F8002330BCED
:1021C000704700BF00ED00E014ED00E0420900F0B0
:1021D0001F00012303FA00F0014B43F8220070476F
:1021E00000E100E00F4B1A6842F001021A605968E2
:1021F0000D4A0A405A601A6822F0847222F4803232
:102200001A601A6822F480221A605A6822F4FE02C8
:102210005A604FF41F029A604FF00062034B9A60BD
:10222000704700BF001002400000FFF800ED00E022
:1022300000F1080343604FF0FF328260C360036126
:1022400000230360704700BF00230361704700BF95
:1022500043684B609A688A609A6851609960086127
:10226000036801330360704730B40D68B5F1FF3F78
:1022700001D1026907E000F1080200E01A46536844
:102280001C68A542FAD253684B6099608A6051601D
:10229000086103680133036030BC7047036942681A
:1022A000816891608268416851605A68904201D1AA
:1022B00082685A600022026118680138186070470D
:1022C00010B5044601F076FCA26BE36B9A4201D193
:1022D000012400E0002401F08FFC204610BD00BF67
:1022E00010B5044601F066FCA36B0BB9012400E0B5
:1022F000002401F081FC204610BD00BF70B50446EB
:102300001646856B026C3AB9036843BB406800F01F
:10231000E1FF0023636029E06EB98068FDF772FF7A
:10232000A268236C1344A3606268934219D32368A4
:10233000A36000201AE0C068FDF764FF236C5B42D5
:10234000E2681A44E26021688A4202D26268134459
:10235000E360022E07D145B1013D002006E00020D8
:1023600004E0002002E0002000E000200135A56329
:1023700070BD00BF026C72B110B50346C46814444E
:10238000C4604068844201D31868D8600846D968A0
:10239000FDF738FF10BD704738B5054601F00AFC5F
:1023A00095F8454064B20AE06B6A53B105F1240028
:1023B00000F08AFE08B100F023FF013C64B2002C5B
:1023C000F2DCFF2385F8453001F016FC01F0F2FB4A
:1023D00095F8444064B20AE02B6953B105F110004E
:1023E00000F072FE08B100F00BFF013C64B2002C5B
:1023F000F2DCFF2385F8443001F0FEFB38BD00BF5E
:1024000038B540B94FF0500383F31188BFF36F8F95
:10241000BFF34F8FFEE704460D4601F0CBFB21686A
:10242000E26B236C03FB021060600020A063A160DC
:10243000013A02FB0313E360FF2384F8443084F87D
:1024400045307DB92369ABB104F1100000F03CFECA
:1024500080B14FF08052094B1A60BFF34F8FBFF32A
:102460006F8F07E004F11000FFF7E2FE04F1240093
:10247000FFF7DEFE01F0C0FB012038BD04ED00E0F7
:1024800010B5029B0C4609B91B6000E01A60D863C6
:102490001C6401211846FFF7B3FF10BD40B94FF08F
:1024A000500383F31188BFF36F8FBFF34F8FFEE7A5
:1024B000F0B583B0034611B101FB00F000E000204D
:1024C0001D4617460C46483001F066FA064638B1FC
:1024D00000903B4600F1480221462846FFF7D0FF16
:1024E000304603B0F0BD00BFF0B585B0019240B9F1
:1024F0004FF0500383F31188BFF36F8FBFF34F8FFB
:10250000FEE7044619B9026C1AB9012202E0012261
:1025100000E0002242B94FF0500383F31188BFF36B
:102520006F8FBFF34F8FFEE7022B03D1E26B012ABF
:1025300002D102E0012200E0002242B94FF0500334
:1025400083F31188BFF36F8FBFF34F8FFEE71D46F4
:102550000E4600F05BFE18B9019B1BB9012302E097
:10256000012300E0002343B94FF0500383F31188A7
:10257000BFF36F8FBFF34F8FFEE7002701F01AFB09
:10258000A26BE36B9A4201D3022D21D12A46314638
:102590002046FFF7B3FE636A6BB104F1240000F03C
:1025A00093FD88B14FF08052324B1A60BFF34F8FCA
:1025B000BFF36F8F08E038B14FF080522D4B1A6097
:1025C000BFF34F8FBFF36F8F01F016FB01204EE07A
:1025D000019B1BB901F010FB002048E01FB902A8C5
:1025E00000F0B8FD012701F007FB00F06DFB01F0E2
:1025F000E1FA94F844305BB2B3F1FF3F02D100231B
:1026000084F8443094F845305BB2B3F1FF3F02D117
:10261000002384F8453001F0EFFA01A902A800F088
:10262000AFFDF0B92046FFF74BFEA0B1019904F1D0
:10263000100000F015FD2046FFF7AEFE00F0E4FBB1
:1026400000289BD14FF080520A4B1A60BFF34F8F86
:10265000BFF36F8F92E72046FFF79EFE00F0D4FB9A
:102660008CE72046FFF798FE00F0CEFB002005B077
:10267000F0BD00BF04ED00E02DE9F84340B94FF094
:10268000500383F31188BFF36F8FBFF34F8FFEE7C3
:10269000044619B9006C18B9012002E0012000E0DD
:1026A000002040B94FF0500383F31188BFF36F8FC0
:1026B000BFF34F8FFEE7022B03D1E06B012802D15D
:1026C00002E0012000E0002040B94FF0500383F306
:1026D0001188BFF36F8FBFF34F8FFEE71F46904601
:1026E000894601F03FFBEFF311864FF0500383F36F
:1026F0001188BFF36F8FBFF34F8FA26BE36B9A42CA
:1027000001D3022F1ED194F845506DB23A46494686
:102710002046FFF7F3FDB5F1FF3F0DD1636A9BB192
:1027200004F1240000F0D0FC80B1B8F1000F0FD00C
:102730000120C8F800000CE06B1C5BB284F8453047
:10274000012006E0002004E0012002E0012000E07A
:10275000012086F31188BDE8F88300BF2DE9F04120
:1027600084B0019240B94FF0500383F31188BFF356
:102770006F8FBFF34F8FFEE7044619B9026C1AB989
:10278000012202E0012200E0002242B94FF0500392
:1027900083F31188BFF36F8FBFF34F8FFEE71F46A0
:1027A000884600F033FD18B9019B1BB9012302E0F4
:1027B000012300E0002343B94FF0500383F3118855
:1027C000BFF36F8FBFF34F8FFEE7002601F0F2F9E2
:1027D000A56B85B3E66841462046FFF7CBFDB7B948
:1027E000013DA563236813B900F0CEFD6060236945
:1027F000EBB104F1100000F067FCC0B14FF0805263
:102800003D4B1A60BFF34F8FBFF36F8F0FE0E66051
:10281000636A63B104F1240000F056FC38B14FF054
:102820008052354B1A60BFF34F8FBFF36F8F01F0AB
:10283000E3F901205DE0019B1BB901F0DDF9002007
:1028400057E01EB902A800F085FC012601F0D4F97A
:1028500000F03AFA01F0AEF994F844305BB2B3F10B
:10286000FF3F02D1002384F8443094F845305BB236
:10287000B3F1FF3F02D1002384F8453001F0BCF9E9
:1028800001A902A800F07CFC38BB2046FFF728FD18
:10289000E8B1236833B901F08DF9606800F0C6FC37
:1028A00001F0AAF9019904F1240000F0D9FB2046B7
:1028B000FFF772FD00F0A8FA002887D14FF0805290
:1028C0000D4B1A60BFF34F8FBFF36F8F7EE720462B
:1028D000FFF762FD00F098FA78E72046FFF75CFD0D
:1028E00000F092FA2046FFF7FBFC00283FF46EAFA1
:1028F000002004B0BDE8F08104ED00E000230BE00F
:10290000074A52F8332032B9054A42F8331002EB35
:10291000C303586070470133072BF1D9704700BFDC
:102920001422002070B504460D46164601F042F907
:1029300094F844305BB2B3F1FF3F02D1002384F836
:10294000443094F845305BB2B3F1FF3F02D100232D
:1029500084F8453001F050F9A36B2BB93246294673
:1029600004F1240000F094FB2046FFF715FD70BD34
:102970000A4B1B681B680BB9012300E0002323B13D
:102980004FF0FF32064B1A607047044B1B68DB6840
:10299000DB685A68024B1A60704700BFA000002035
:1029A0007C01002010B50446006B01F077F820464A
:1029B00001F074F810BD00BF2DE9F047804699463C
:1029C000089D099F0A9C236B02F18042013A03EBA8
:1029D000820626F00706002306E0C85CE21882F8AB
:1029E0003400CA5C12B101330F2BF6D9002384F8EE
:1029F0004330062D00D90625E56265644FF0000AD4
:102A0000C4F848A0201DFFF71FFC04F11800FFF7D1
:102A10001BFC2461C5F10705A5616462C4F84CA0E4
:102A200084F850A04A464146304601F09DF82060A7
:102A300007B13C60BDE8F08738B5002407E004EB3F
:102A4000840293000E481844FFF7F2FB0134062C71
:102A5000F5D90C4D2846FFF7EBFB0B4C2046FFF752
:102A6000E7FB0A48FFF7E4FB0948FFF7E1FB0948E9
:102A7000FFF7DEFB084B1D60084B1C6038BD00BF34
:102A8000C400002084010020980100206001002083
:102A9000A8000020AC010020A0000020BC00002005
:102AA00010B5044601F086F8204A1368013313601C
:102AB0001F4B1B683BB91E4B1C601368012B0DD1CB
:102AC000FFF7BAFF0AE01B4B1B683BB9184B1B68AA
:102AD000DA6AE36A9A4201D8154B1C60164A1368F9
:102AE00001331360E36A012202FA03F1134802681A
:102AF0000A43026003EB83039A00211D104810442F
:102B0000FFF7A6FB01F078F80A4B1B686BB1084B86
:102B10001B68DA6AE36A9A4207D24FF08052094B87
:102B20001A60BFF34F8FBFF36F8F10BD58010020A5
:102B30005C010020A400002080010020C0010020D2
:102B4000C400002004ED00E070B504460E461D4BA5
:102B50001D681D4B18680430FFF7A0FB50B91A4BD5
:102B60001B68DA6A012303FA02F218490B6823EAA8
:102B700002030B60B4F1FF3F07D136B1124B196865
:102B800004311348FFF764FB70BD2C440E4B1B68E7
:102B90005C60A54207D90F4B18680B4B19680431CC
:102BA000FFF762FB70BD0C4B1868074B19680431C6
:102BB000FFF75AFB094B1B689C4201D2074B1C6074
:102BC00070BD00BF780100205C010020C001002022
:102BD000AC010020BC000020A00000207C010020EF
:102BE0002DE9F04385B006460F46154698469000FD
:102BF00000F0D2FE60B18146542000F0CDFE0446C4
:102C000010B1C0F8309004E0484600F047FF00E003
:102C100000248CB10023039302940D9B01930C9B21
:102C2000009343462A4639463046FFF7C5FE204604
:102C3000FFF736FF012001E04FF0FF3005B0BDE89F
:102C4000F08300BF00B583B0194B019300230093BC
:102C5000802218491848FFF7C3FF012801D100F06E
:102C600021FC012814D14FF0500383F31188BFF3E6
:102C70006F8FBFF34F8F4FF0FF32104B1A6001225E
:102C80000F4B1A6000220F4B1A6001F01FF80BE087
:102C9000B0F1FF3F08D14FF0500383F31188BFF329
:102CA0006F8FBFF34F8FFEE703B05DF804FB00BFEB
:102CB000740100207C400008A52F00087C01002042
:102CC000A400002078010020024A13680133136039
:102CD000704700BF50010020014B1868704700BFCB
:102CE00078010020F8B53D4B1B68002B69D13C4BA7
:102CF0001D6801351D60C5B93A4B1B681B6843B19F
:102D00004FF0500383F31188BFF36F8FBFF34F8FE2
:102D1000FEE7344A1168344B186810601960334A72
:102D2000136801331360FFF723FE314B1B689D428C
:102D300003D200243AE0012400E00024294B1B6860
:102D40001B680BB9012300E0002323B14FF0FF32D1
:102D5000274B1A602AE0234B1B68DB68DE68736828
:102D60009D4202D2224A136020E0371D3846FFF709
:102D700095FAB36A1BB106F11800FFF78FFAF36AF0
:102D8000012202FA03F11B4802680A43026003EBC6
:102D900083039A00394618481044FFF759FAF26A3B
:102DA000164B1B68DB6A9A42C5D2C7E7134B1B68F8
:102DB000DB6A03EB83039A000F4B9B58012B06D869
:102DC00006E00F4A136801331360002400E0012479
:102DD0000C4B1B6803B101242046F8BD50010020B4
:102DE00078010020A0000020BC0000209C000020F2
:102DF0007C010020C0010020C40000205C010020F4
:102E0000C0000020C401002038B5344B1B6843B912
:102E10004FF0500383F31188BFF36F8FBFF34F8FD1
:102E2000FEE700F0C7FE2D4B1A68013A1A601B68D6
:102E3000002B4CD12A4B1B6833BB00244AE0294BA2
:102E4000DB68DC6804F11800FFF728FA251D284626
:102E5000FFF724FAE36A012202FA03F1224802682A
:102E60000A43026003EB83039A0029461F4810447B
:102E7000FFF7EEF9E26A1E4B1B68DB6A9A4204D345
:102E800001221C4B1A6000E00024164B1B68002B2B
:102E9000D5D10CB1FFF76CFD174B1C6854B1FFF78F
:102EA00021FF10B10122134B1A60013CF7D100221F
:102EB000114B1A600F4B1B685BB14FF080520F4BE8
:102EC0001A60BFF34F8FBFF36F8F012402E000241D
:102ED00000E0002400F090FE204638BD50010020A4
:102EE0005801002060010020C0010020C400002023
:102EF0005C010020C4010020C000002004ED00E0BF
:102F000010B5A8B10446104B1B6843B14FF05003F5
:102F100083F31188BFF36F8FBFF34F8FFEE7FFF787
:102F2000D3FE00212046FFF70FFEFFF76DFF00E004
:102F3000002038B94FF08052044B1A60BFF34F8F16
:102F4000BFF36F8F10BD00BF5001002004ED00E003
:102F500010B51BE0FFF7B8FE0F4B1C68FFF754FFDE
:102F6000A4B100F027FE0C4BDB68DC68201DFFF7E6
:102F700095F90A4A1368013B1360094A1368013B3B
:102F8000136000F039FE2046FFF70CFD044B1B6870
:102F9000002BDFD110BD00BFA80000205801002089
:102FA0005401002008B5FFF7D3FF064B1B68012B27
:102FB000F9D94FF08052044B1A60BFF34F8FBFF323
:102FC0006F8FF0E7C400002004ED00E01F4B1B688A
:102FD0001BB101221E4B1A60704700221C4B1A6065
:102FE0001C4B1B68B3FA83F3DBB2C3F11F0303EB83
:102FF00083018A0018498A5842B94FF0500383F37D
:103000001188BFF36F8FBFF34F8FFEE730B4124DBF
:103010009900CA18900028444268546844601944D2
:103020008A0008322A44944205D1606803EB830188
:103030008A002A44506003EB83039A00064B1A442B
:103040005368DA68054B1A6030BC704750010020A5
:10305000C4010020C0010020C40000205C01002049
:1030600040B94FF0500383F31188BFF36F8FBFF364
:103070004F8FFEE710B50C46044B19681831FFF767
:10308000F3F801212046FFF75FFD10BD5C01002031
:1030900038B540B94FF0500383F31188BFF36F8FF9
:1030A000BFF34F8FFEE70C461546064A11681831EC
:1030B000FFF7CEF80DB14FF0FF3429462046FFF759
:1030C00043FD38BD5C01002038B5C368DC6844B9F5
:1030D0004FF0500383F31188BFF36F8FBFF34F8F0F
:1030E000FEE704F118052846FFF7D8F8134B1B68D4
:1030F000A3B9251D2846FFF7D1F8E36A012202FA99
:1031000003F10F4802680A43026003EB83039A004D
:1031100029460C481044FFF79BF803E029460A486B
:10312000FFF796F8E26A094B1B68DB6A9A4203D9FB
:103130000120074B186038BD002038BD5001002029
:10314000C0010020C4000020600100205C010020BC
:10315000C401002040B94FF0500383F31188BFF33E
:103160006F8FBFF34F8FFEE7034A12680260034A76
:1031700012684260704700BF9C0000207801002068
:1031800038B540B94FF0500383F31188BFF36F8F08
:10319000BFF34F8FFEE7044641B94FF0500383F36E
:1031A0001188BFF36F8FBFF34F8FFEE70D4600F01E
:1031B00001FD114B19682A68B2F1FF3F13D0206856
:1031C0000E4B1B68984202D0636899420DD2636827
:1031D000C81A82420BD95B1A13442B602046FFF7B2
:1031E000B9FF002404E0002402E0012400E00124EF
:1031F00000F002FD204638BD780100209C00002030
:103200000122014B1A607047C4010020054B1B6866
:1032100023B1054B1B681BB9022070470120704782
:1032200000207047A40000205001002000284AD050
:1032300038B50246C36A24490968C96A8B4241D23B
:103240008169002905DB20490968C96AC1F10701C4
:103250008161506903EB830399001C4B1944884238
:1032600001D1012300E0002343B31446151D284675
:10327000FFF714F870B9E36A03EB83018A0013497E
:103280008A583AB9012202FA03F311490A6822EA7C
:1032900003030B600C4B1B68DB6AE362012202FA3A
:1032A00003F10B4802680A43026003EB83039A00B0
:1032B000294606481044FEF7CBFF38BD024B1B6879
:1032C000DB6AD36238BD70475C010020C400002077
:1032D000C001002000284BD038B50346274A1268A9
:1032E000904208D04FF0500383F31188BFF36F8FE3
:1032F000BFF34F8FFEE7826C42B94FF0500383F368
:103300001188BFF36F8FBFF34F8FFEE7013A8264DE
:10331000C06A596C88422DD072BB1C461D1D2846C0
:10332000FEF7BCFF70B9E26A02EB82018B00144920
:10333000CB583BB9012303FA02F212490B6823EA86
:1033400002030B60636CE362C3F10702A261012414
:1033500004FA03F00B490A6802430A6003EB830393
:103360009A00294606481044FEF772FF204638BDF1
:1033700000207047002038BD002038BD5C010020CF
:10338000C4000020C0010020054B1B6823B1044B82
:103390001A68936C01339364014B1868704700BF3F
:1033A0005C010020064B1A681368B3FA83F35B09CB
:1033B000036013B9D368186870470020704700BFD6
:1033C000C801002008B54160006191420AD8D21AB4
:1033D00083699A4211D2011D0A4B1868FEF744FF17
:1033E000002008BD9A4201D2994208D2011D064B25
:1033F0001868FEF739FF002008BD012008BD012034
:1034000008BD00BFFC010020C801002038B500F055
:10341000D1FB0E4B1B68B3B90D4D2846FEF708FFD4
:103420000C4C2046FEF704FF0B4B1D600B4B1C6041
:1034300000220C210A20FFF731F8044B186010B16C
:103440000749FFF75BFA00F0D7FB38BDF801002011
:10345000CC010020E0010020C8010020FC01002078
:10346000844000082DE9F041079C41B94FF050031A
:1034700083F31188BFF36F8FBFF34F8FFEE70F46C3
:1034800074B11D4616468046FFF7C0FFC4F80080A1
:10349000A761E6612562069B6362201DFEF7D4FEEC
:1034A000BDE8F08100B583B0FFF7B0FF0E4B1B689D
:1034B0005BB10E4B01930323009300234FF4807202
:1034C0000B490C48FFF78CFB00E0002040B94FF09F
:1034D000500383F31188BFF36F8FBFF34F8FFEE765
:1034E00003B05DF804FB00BFF801002000020020DB
:1034F0008C400008CD3700082DE9F04182B0054628
:103500000E4617469846282000F046FA044640B179
:103510000190089B009343463A4631462846FFF700
:10352000A1FF204602B0BDE8F08100BF40B94FF0D6
:10353000500383F31188BFF36F8FBFF34F8FFEE704
:1035400030B585B015460446124A1068F0B11A46E7
:10355000019102950394052913DCFFF757FE022819
:1035600007D10023089A01A90A480068FEF7BCFFAA
:103570000DE000231A4601A906480068FEF7B4FFD3
:1035800005E0002301A9FFF777F800E0002005B06F
:1035900030BD00BFF801002070B582B029E0DB68C3
:1035A0001E68DC68251D2846FEF778FE636A204603
:1035B0009847E369012B1CD1A36933449E4207D28B
:1035C000636024612946114B1868FEF74DFE10E038
:1035D000002100910B4632462046FFF7A7FF40B975
:1035E0004FF0500383F31188BFF36F8FBFF34F8FFA
:1035F000FEE7064B1B681A68002AD0D1044A1068FF
:1036000002490860136002B070BD00BFC80100200D
:10361000FC01002038B50546FFF75EFB0446074B6A
:103620001B68984204D2FFF7B7FF01232B6001E02B
:1036300000232B60014B1C60204638BDF4010020A4
:1036400070B582B005460E46134B1B68DB68DC681C
:10365000201DFEF723FEE369012B18D1A1692B463B
:10366000324629442046FFF7ADFE80B1002100918B
:103670000B462A462046FFF759FF40B94FF050034A
:1036800083F31188BFF36F8FBFF34F8FFEE7636A39
:103690002046984702B070BDC801002070B582B0C6
:1036A00006460C46FFF710FB01A8FFF7B3FF019B8E
:1036B0001BBB054644B9B04206D3FFF7A5FB29461C
:1036C0003046FFF7BDFF1AE02CB10E4B1B681C689B
:1036D000B4FA84F464092246711B0B4B1868FFF797
:1036E00021F9FFF791FB50B94FF08052074B1A6058
:1036F000BFF34F8FBFF36F8F01E0FFF785FB02B081
:1037000070BD00BFFC010020F801002004ED00E0C6
:1037100030B587B04DE0039B002B4ADB059C636905
:1037200013B1201DFEF7BAFD02A8FFF773FF039B3C
:10373000092B3ED8DFE803F00505053D273A0505CE
:103740003D270499A5690B46024629442046FFF708
:1037500039FE70B3636A20469847E369012B28D18C
:10376000A269002100910B46049802442046FFF70D
:10377000DDFEF0B94FF0500383F31188BFF36F8F74
:10378000BFF34F8FFEE70499A16141B94FF0500399
:1037900083F31188BFF36F8FBFF34F8FFEE70346AC
:1037A000024601442046FFF70DFE02E0204600F0ED
:1037B00075F900231A4603A903480068FEF7CEFFF7
:1037C0000028A8D107B030BDF801002000B583B0B3
:1037D00001A8FFF7E7FD0199FFF760FFFFF798FFEA
:1037E000F6E700BF842801D00330704700207047FF
:1037F000EFF30580003018BF0120704708B5FFF7D0
:1038000021FA002008BD00BFF0B585B00F4644681E
:1038100005680669B0F90800FFF7E4FF03AB019300
:1038200000903B46B2B229462046FFF7D9F901285D
:1038300001D1039800E0002005B0F0BD08B508B93B
:103840000120FFE7FFF75CFB002008BD00B583B057
:103850001346012901D1012200E0002201680091F4
:1038600001210348FFF748FE03B05DF804FB00BFE9
:103870008040000830B585B00546002303930C4610
:1038800001B90124FFF7B4FFA8B10023009303ABF3
:10389000224609212846FFF749FE012816D1039B3D
:1038A000B3B14FF080520D4B1A60BFF34F8FBFF38F
:1038B0006F8F00200FE0002300932246042128464A
:1038C000FFF734FE012805D1002004E0FF2002E0CC
:1038D000002000E0FF2005B030BD00BF04ED00E097
:1038E000124A12F0070F07D0D11D21F00701C1F5D0
:1038F000FD5313440A4601E04FF4FD530C480260A7
:10390000002141601344083B23F00703094803608A
:1039100059601960991A51601360074B1960074B81
:1039200019604FF00042064B1A60704714020020E5
:103930000C02002008020020B82100200402002010
:10394000B4210020124B00E013461A688242FBD3D8
:1039500010B45C681919884203D141682144596048
:103960001846446801198A420CD10A4909688A42FA
:1039700006D05268224442601A681268026002E06F
:10398000016000E00260984200D0186010BC7047EF
:103990000C0200200802002070B50446FFF794F9DD
:1039A000394B1B680BB9FFF79BFF384B1B681C4258
:1039B00053D194B1083414F0070F0ED024F007044B
:1039C000083404F0070343B14FF0500383F3118828
:1039D000BFF36F8FBFF34F8FFEE7002C3FD02C4B10
:1039E0001B689C423DD82B4B1D6801E02B461546B9
:1039F0006A68944202D92A68002AF7D1224A1268DA
:103A0000954230D01E6808362A681A606B681B1B06
:103A1000102B10D9281910F0070F08D04FF05003C1
:103A200083F31188BFF36F8FBFF34F8FFEE74360BF
:103A30006C60FFF787FF6A6815490B689B1A0B607B
:103A4000154909688B4201D213490B600F4B1B6863
:103A50001A436A6000232B6006E0002604E000267B
:103A600002E0002600E00026FFF7CEF916F0070F6F
:103A700008D04FF0500383F31188BFF36F8FBFF36B
:103A80004F8FFEE7304670BD08020020B4210020B1
:103A9000040200200C020020B8210020A0B338B599
:103AA0000346A0F1080550F8042C1849096812EAE9
:103AB000010408D14FF0500383F31188BFF36F8FD7
:103AC000BFF34F8FFEE750F8080C40B14FF05003A2
:103AD00083F31188BFF36F8FBFF34F8FFEE794B16D
:103AE00088B91C4622EA010243F8042CFFF7ECF8DF
:103AF00054F8043C064A11680B4413602846FFF74B
:103B000021FFFFF781F938BD704700BFB4210020C5
:103B1000040200200B4B1B68B3F1FF3F08D04FF0AD
:103B2000500383F31188BFF36F8FBFF34F8FFEE70E
:103B30004FF0500383F31188BFF36F8FBFF34F8FA4
:103B4000FEE700BF6C00002006480068006880F3B4
:103B5000088862B661B6BFF34F8FBFF36F8F00DF87
:103B600000BF000008ED00E04FF0807340F8043C17
:103B700021F0010140F8081C034B40F80C3C40F8D0
:103B8000202C4038704700BF153B000800000000A3
:103B9000074B19680868B0E8F00F80F30988BFF395
:103BA0006F8F4FF0000080F311884EF00D0E7047BC
:103BB0005C0100204FF0500383F31188BFF36F8F37
:103BC000BFF34F8F0A4A136801331360012B0DD1E5
:103BD000084B1B6813F0FF0F08D04FF0500383F31E
:103BE0001188BFF36F8FBFF34F8FFEE7704700BFA1
:103BF0006C00002004ED00E0094B1B6843B94FF056
:103C0000500383F31188BFF36F8FBFF34F8FFEE72D
:103C1000013B034A13600BB983F31188704700BF5F
:103C20006C00002000000000000000000000000008
:103C3000EFF30980BFF36F8F0D4B1A6820E9F00F87
:103C400010602DE908404FF0500080F31188FFF715
:103C5000BDF94FF0000080F31188BDE808401968F5
:103C60000868B0E8F00F80F30988BFF36F8F7047E2
:103C70005C01002008B54FF0500383F31188BFF3B7
:103C80006F8FBFF34F8FFFF72DF818B14FF08052B1
:103C9000024B1A60002383F3118808BD04ED00E095
:103CA000064B1B68064AA2FB03239B09013B054AFE
:103CB00013600722044B1A60704700BF68000020A1
:103CC000D34D621014E000E010E000E000B583B0D6
:103CD0001F4B1A78D2B20192FF221A701B78DBB206
:103CE0008DF803309DF8033003F05003194A137028
:103CF0000722194B1A6009E0174A1368013B136049
:103D00009DF803305B00DBB28DF803309DF8033083
:103D100013F0800FF0D1104A13681B0203F4E06324
:103D20001360019BDBB20A4A13700C4B1A6842F411
:103D300070021A601A6842F070421A60FFF7B0FF12
:103D40000022074B1A60FFF7FFFEFFF7E3FE00BFFC
:103D500000E400E0BC210020C021002020ED00E0B4
:103D60006C000020EFF305830F2B0FD9104A9B5CEA
:103D7000DBB2104A1278934208D24FF0500383F31B
:103D80001188BFF36F8FBFF34F8FFEE70A4B1B689D
:103D900003F4E063094A1268934208D94FF05003D4
:103DA00083F31188BFF36F8FBFF34F8FFEE7704728
:103DB000F0E300E0BC2100200CED00E0C021002079
:103DC0000122014B1A60704770000020F0B589B0E5
:103DD00000240494059406940794254B9A6942F0B4
:103DE00010029A619A6902F010020092009A9A6990
:103DF00042F020029A619A6902F020020192019A2F
:103E00009A6942F008029A619A6902F008020292E5
:103E1000029A9A6942F004029A619B6903F00403D2
:103E20000393039B134F22464FF420513846FEF76D
:103E30007FF90225049505940126069604A90E48EB
:103E4000FEF782F84FF400630493059606940795F5
:103E500004A93846FEF778F84FF40053049305960A
:103E60000694079504A90548FEF76EF809B0F0BD61
:103E700000100240000C0140000801400010014009
:103E800008B5094B1B68012BFBD10022064B1A60B9
:103E90004FF400610548FEF751F94FF47A71044B75
:103EA0001868FFF7E7FCECE770000020000C014009
:103EB000C821002008B502210A48FEF731F9002880
:103EC000F9D102210748FEF72BF90028F9D04FF469
:103ED000C870FFF7B3FC4FF400510348FEF72EF90A
:103EE000E9E700BF000801400010014030B591B083
:103EF0002822002106A8FCF7FBF900240194029473
:103F0000039404940594012206924FF4803307939E
:103F10000A9202250D950E934FF4E0130F9306A815
:103F2000FDF7D2FC0F230193029503944FF48063B5
:103F300004930594294601A8FDF7FEFE11B030BD9B
:103F400070B58CB0FDF786FCFFF7D0FFFFF73EFFA2
:103F50000CA8124B40F8043D00221146FFF776FCF6
:103F60000F4B18600F4C06AD26460FCE0FC53368B9
:103F70002B60002106A8FFF747FC0B4B186001AD32
:103F800014340FCC0FC523682B60002101A8FFF764
:103F90003BFC064B1860FFF731FCFEE7C13D000813
:103FA000C82100203C400008C4210020CC21002072
:103FB00008B50268024B9A4201D1FDF75DFC08BDCD
:103FC000002C0140002103E00B4B5B5843500431AF
:103FD0000A480B4B42189A42F6D30A4A02E00023E1
:103FE00042F8043B084B9A42F9D3FEF7FBF8FCF782
:103FF000E1F8FFF7A5FF7047DC4100080000002052
:10400000740000207400002058220020FEE7000009
:10401000F8B500BFF8BC08BC9E467047F8B500BFB5
:08402000F8BC08BC9E46704785
:1040280002030405060708090A0B0C0D0E0F1010F1
:10403800010200009C400008813E000800000000CA
:10404800000000008000000094400008B53E000811
:1040580000000000000000008000000000000000D8
:104068000000000001020304060708090000000020
:104078000102030449444C4500000000546D72518C
:1040880000000000546D7220537663007461736BF6
:10409800320000007461736B3100000043000000BF
:1040A80008B10181B0B000840000000008B10181AE
:1040B800B0B000840000000008B10181B0B00084F5
:1040C8000000000008B10181B0B0008400000000C9
:0C40D80008B10181B0B0008400000000BD
:1040E400ACC2FF7F0100000040C3FF7FB0A9028083
:1040F400DCC3FF7FB0B0A8802CC4FF7F01000000A8
:1041040038C4FF7FB0B0AA8070C4FF7FAE71B280A4
:104114003CC5FF7F0100000038C5FF7FAB3F3880FE
:1041240090C5FF7F010000009CC5FF7FB0B0AA804E
:10413400D8C5FF7F0100000090C6FF7FAB0EB280A0
:10414400F8C6FF7FB0AF0A80CCC9FF7F0100000032
:10415400D0C9FF7FAB3F048018CCFF7F0100000073
:10416400F4CDFF7F0084048008CEFF7F01000000AF
:1041740004CEFF7FB0AD0480A0D0FF7FB0A8038041
:10418400C0D0FF7F44FFFF7FC4D0FF7F48FFFF7F85
:10419400D0D0FF7F0100000030FCFF7FB0AB08806F
:1041A400DCFCFF7F00FFFF7F08FDFF7F04FFFF7F34
:1041B40038FDFF7FB0A9108084FDFF7FB0AA0B807B
:1041C400ECFDFF7FF8FEFF7FF8FDFF7F010000009C
:0441D4007D01000861
:0441D8005501000885
:1041DC0004000020000000000000000000000000AF
:1041EC0000000000000000000000000000000000C3
:1041FC0000000000A44000080000000000000000C7
:10420C0000000000000000000000000000000000A2
:10421C000000000000000000000000000000000092
:10422C000000000000000000000000000000000082
:10423C00000000000100000000A24A04AAAAAAAAD9
:04424C00010000006D
:0400000508003FC5EB
:00000001FF
