:020000040800F2
:1000000000500020D93A0008751000087710000849
:10001000791000087B1000087D1000080000000027
:10002000000000000000000000000000A1360008F1
:100030007F100008000000004137000885370008E5
:10004000213B0008213B0008213B0008213B000820
:10005000213B0008213B0008213B0008213B000810
:10006000213B0008213B0008213B0008213B000800
:10007000213B0008213B0008213B0008213B0008F0
:10008000213B0008213B0008213B0008213B0008E0
:10009000213B0008213B0008213B0008213B0008D0
:1000A000213B000881100008213B0008213B00088B
:1000B000213B0008213B0008213B0008213B0008B0
:1000C000213B0008213B0008213B0008213B0008A0
:1000D000213B0008213B0008213B0008213B000890
:1000E000213B0008213B0008213B000800000000E4
:1000F0000000000000000000000000000000000000
:0C01000000000000000000005FF808F1A3
:1001100010B5054C237833B9044B13B10448AFF341
:1001200000800123237010BD740000200000000037
:10013000403C000808B5034B1BB103490348AFF32B
:10014000008008BD0000000078000020403C00084E
:1001500003685A004CBF43F0004323F000431844A7
:10016000704700BF61B32DE9F84F01F1FF3A9046A7
:100170000646D146002707EB090404EBD47464104B
:10018000E50071190846FFF7E3FFA245834605F134
:100190000800304409D0FFF7DBFFC34500F1FF3012
:1001A00005D8404509D2671CE5E7C34505D9A742F4
:1001B00002D004F1FF39DEE700210846BDE8F88FE0
:1001C00008467047012807D0022807D0044B0028B2
:1001D0000CBF18460020704702487047024870471D
:1001E000C1080008C5080008C908000830B5264B3A
:1001F00083B004468D1E4BB301A92846AFF300809F
:10020000F0B101992A46FFF7ADFF0146C0B1FFF7F3
:100210009FFF4B68A064012B2FD0002B01F104003D
:1002200027DBFFF795FF0023C4E913030368002BC6
:1002300013DBFFF78DFF00232061184603B030BDAC
:10024000092300221846226103B030BD0F4B10492C
:100250001846C91AC9100191D4E7C3F30360FFF728
:10026000B1FF002814BF002309232061184603B002
:1002700030BD0123C4E91303D8E705230022184643
:10028000226103B030BD00BF00000000103D000837
:10029000003E0008036810B5DA07044606D49B0741
:1002A00000F1480009D500F067FC2368590709D51B
:1002B0001A070ED5DB0613D510BD00F055FC2368D8
:1002C0005907F5D404F1D00000F05EFC23681A074A
:1002D000F0D404F5A87000F05FFC2368DB06EBD4D3
:1002E00004F5E870BDE8104000F09ABC036803B163
:1002F00003441846704700BF09207047704700BF8D
:1003000070B504460D4608E02A6C236962612146F7
:100310002A4601209847082808D1296C2046FFF773
:1003200065FF06460028EFD003F02EFC0728FBD11E
:100330003046296CFFF7E2FF281D00F009FC00BFE2
:100340002DE9F04705464FF0000CADF5727D03AC8A
:100350000E1D17460FCE0FC40FCE0FC40FCE0FC405
:1003600096E80F00D5F80C80D5F8189084E80F00B7
:1003700002ACC4F800C021E0236C4FF4F0726B6152
:1003800021467AA803F0F2FB2B697AAA2946304667
:100390009847889BCDE900498246636431462B46E5
:1003A0002A460120C0470746F8B94FF4F0727AA9EF
:1003B000204603F0DBFBBAF1080F1CD1216C284664
:1003C000FFF714FF002F08BF0926074618BF0A26AB
:1003D0000028D1D0A36B46F01001CDE900492A4690
:1003E000636401202B46C04700B1092738460DF54C
:1003F000727DBDE8F087BAF1070FF6D13846216C5F
:10040000FFF77CFF03A800F0A3FB00BF406C704720
:100410004FF0FF3CF0B5CB6BF9B00B640D1D01AC98
:100420000F4606460FCD0FC40FCD0FC40FCD0FC41E
:1004300095E80F0084E80F00CDF800C006E03369AE
:100440006A46314698470828044608D11099304634
:10045000FFF7CCFE0028F2D0092079B0F0BD684645
:10046000FFF718FF062CF7D139463046FFF748FF53
:1004700030B4DD6BC160826119461D64002230BC5E
:100480005EE700BF70B54369C6680B64BEB9036917
:100490000A4604460D46014602209847072807D021
:1004A000082803D129462046FFF72AFF03F06CFBFA
:1004B0003046296CFFF722FF281D00F049FB01227E
:1004C000FFF73EFF03F060FBC2682AB110B4CC6BAB
:1004D00000220C6410BC33E79AE700BF704700BFEE
:1004E000836813B10146012018477047042907D8D3
:1004F000DFE801F00308060808000BB90F2A03D94A
:10050000022070470120704700EB820042681846C5
:10051000009B1A60704700BF002310B584B003AC85
:100520000A4600941946FFF7E1FF039804B010BD96
:10053000042907D8DFE801F00308060808000BB912
:100540000F2A03D90220704701207047009900EB61
:100550008202096818465160704700BF002310B539
:1005600084B004AC44F8042D00940A461946FFF701
:10057000DFFF04B010BD00BF4FF0FF3CF0B5D36B00
:10058000ADF50F7D1364151D17AC07460E460FCD54
:100590000FC40FCD0FC40FCD0FC495E80F0084E832
:1005A0000F00CDF858C012E00C2116A86A46FFF7DC
:1005B000D5FF314616A8B84778B9049B16AA6946F4
:1005C000082098470528044608D0092805D0269910
:1005D0006846FFF70BFE0028E6D0092416A8FFF7AF
:1005E00059FE20460DF50F7DF0BD00BF2DE9F04FFF
:1005F0000D46C96C89B00C1D164600F0030B0A6845
:100600001F460694002B68D00221130C8DF81D3074
:100610001204DBB204EB830405928DF81C102B6DE1
:10062000BBF1020F08BFAC6B13F0010346D101937D
:1006300000F008030093D4F80090B9F1000F00F027
:10064000F380022F45D0B4F80090B4F8028004344F
:10065000AB6C28F0010A0F2130469A44FFF75CFF8B
:10066000824534D829F001035344834294BF0020CB
:1006700001204FEA480808F0020809F0010948EA99
:100680000908B8F1010F3AD031D3B8F1020F1AD1ED
:10069000236823F0004ABBF1000F66D130B1009A05
:1006A000002A6CD0BAF1000F00F09080002B00DA25
:1006B00004340AF1010304EB8304BCE7304605A9C6
:1006C00000F048FB78B1092009B0BDE8F08F0020A8
:1006D000CFE7D4F804800834BAE703231202059266
:1006E000ADF81C309BE7082009B0BDE8F08FBBF1E6
:1006F000000F02D0002840F0B48004349BE7BBF127
:10070000000F18D1A8B1D4E90023991C4FEAD27286
:10071000D9D005F158010133049100F0B580201DB6
:10072000FFF7E4FD04AB01462846AFF30080002844
:1007300067D108347FE70D213046D5F82080FFF7D8
:10074000EBFE8045F5D1AB6A9C42F2D12046FFF723
:10075000FFFC0F2102463046FFF700FF30462A46D5
:100760000021FFF7FBFE0720AEE70D213046D5F84C
:100770002080FFF7D1FE804532D0236896E7BAF19A
:10078000000F23D005F1580304F10408CDF808B098
:10079000DDF80090A34603971C4602E05745B94692
:1007A00040D040460494FFF7A1FD04AB014600226F
:1007B0002846AFF3008009F1010708F1040800287A
:1007C000ECD0D1455C46DDE902B7D6D130460D21EB
:1007D000FFF7A2FE049B2862C5E90934062073E7EF
:1007E000AB6A9C42C9D104224FF00008A318C5E9A6
:1007F0000AA8C5E90C23236843454DDB0123019377
:1008000057E780460D213046FFF786FEB8F1020F0C
:1008100028623ED12B46049A43F82C2F6B62AC62BF
:10082000062051E75C46D1E705A9304600F092FA70
:1008300000287FF448AF019B002B3FF454AF0F21F9
:100840003046FFF769FE0E2102463046FFF786FE6E
:1008500030461A4A0F21FFF781FE072009B0BDE894
:10086000F08F2046FFF774FC04340746AC6328463B
:10087000AFF3008000283FF426AF30463A460F2100
:10088000FFF76CFE07201FE730460D21FFF744FEFF
:100890002862049B6B62C2E70AF1010004EB80004E
:1008A000FFF756FC0F2102463046FFF757FE304651
:1008B0002A464146FFF752FE072005E700000000E8
:1008C000002393E6012391E602238FE62DE9F04110
:1008D0000546C4B0042906D8DFE801F04D2B050316
:1008E0000900032B5FD0022044B0BDE8F081002B4B
:1008F000F9D1102AF7D82B68DC0600F1F68022AC7B
:1009000020460192012600F095F90023A86B019A78
:1009100006FA03F1114203D00168043044F82310B1
:100920000133042BF4D1A863204600F079F90020AC
:10093000DAE7012B4FEA124697B254D0052BD2D1F9
:1009400006EB0708B8F1200FCDD80F2E40F29B80A0
:10095000B846002F40F0DD80AA6B0F2EAA6340F24C
:10096000C080B8F1000F02D002A800F00DF90020FD
:1009700044B0BDE8F081002BB5D10127AC6B96B235
:10098000281D07FA03F1314203F1010302D0216867
:1009900004340160102B00F10400F2D112F4005075
:1009A000E5D1AC63A0E7160C97B2F319102B9AD8D7
:1009B0002B681A075FD422AC204600F00FF904EB35
:1009C000C601A86B4FB1034600EBC7001A68043399
:1009D000834241F8042BF9D11846A863204600F061
:1009E000DBF8002080E7F219102A3FF67CAF0F2ECB
:1009F0003FF679AF2A68D10708D5284622F00302CE
:100A000040F8482B019300F0B3F8019B22AC20463C
:100A1000019300F0ADF8A96B019B002F00F09580C9
:100A20004FF000087A0004EBC604043C01EB82029C
:100A300051F8040B914244F8040FF9D1B8F1000FBA
:100A40000FD002AC102E314638BF102104EBC1018B
:100A5000843902EBC80452F8040B944241F8040FA5
:100A6000F9D1012B7FF479AF22AC0432AA6320467E
:100A700000F07AF87BE723F008032B6005F5A870F7
:100A800000F0ACF897E7B8F1100F2A6843D9D00707
:100A9000A8F110080BD5284622F0010242F002020C
:100AA00040F8482B019300F06BF82A68019B51072E
:100AB00025D40F2E04D822A8019300F061F8019BE1
:100AC00002AC2046019300F063F8C6F11000002844
:100AD000AA6B019BB6DD22AC114604EBC6044200B2
:100AE000A3E722A800F048F83BE723F010032B60AF
:100AF00005F5E870019200F09DF8019AFFE628469E
:100B000022F0040240F8D02B019300F041F8019B41
:100B1000CFE72A68CBE7D0070AD5284622F00102A2
:100B200042F0020240F8482B019300F029F8019BA3
:100B300022AC20460193B84600F022F8A96B019B35
:100B4000002F7FF46DAF0A4607E70A468DE700BF26
:100B500000F1340191E838009C46A6464CF8045D4B
:100B600090E8FF0FE54600BD90EC210B704700BFF9
:100B700080EC210B704700BF90EC200B704700BF4A
:100B800080EC200B704700BFD0EC200B704700BFFB
:100B9000C0EC200B704700BFF0EC0201F0EC02113A
:100BA000F0EC0221F0EC0231F0EC0241F0EC0251E9
:100BB000F0EC0261F0EC0271F0EC0281F0EC0291D9
:100BC000F0EC02A1F0EC02B1F0EC02C1F0EC02D1C9
:100BD000F0EC02E1F0EC02F1704700BFE0EC020142
:100BE000E0EC0211E0EC0221E0EC0231E0EC024129
:100BF000E0EC0251E0EC0261E0EC0271E0EC028119
:100C0000E0EC0291E0EC02A1E0EC02B1E0EC02C108
:100C1000E0EC02D1E0EC02E1E0EC02F1704700BF51
:100C2000B0FC0181B0FC0191B0FC01A1B0FC01B1AC
:100C3000704700BFA0FC0181A0FC0191A0FC01A1B4
:100C4000A0FC01B1704700BFEC4600B52DE9005093
:100C50002DE9FF1F4FF000032DE90C0001A9FFF75C
:100C6000D7FBDDF840E012B0704700BFEC4600B59E
:100C70002DE900502DE9FF1F4FF000032DE90C0076
:100C800001A9FFF7FFFBDDF840E012B0704700BF9D
:100C9000EC4600B52DE900502DE9FF1F4FF0000391
:100CA0002DE90C0001A9FFF70FFCDDF840E012B0C0
:100CB000704700BFEC4600B52DE900502DE9FF1F3D
:100CC0004FF000032DE90C0001ABFFF7D1FBDDF87D
:100CD00040E012B0704700BFEC4600B52DE900506F
:100CE0002DE9FF1F4FF000032DE90C0001AAFFF7CB
:100CF00043FCDDF840E012B0704700BF027A7AB9D9
:100D0000437AA3B103214268013B10B443721368D4
:100D1000141D01721A024460026010BC180E704764
:100D20000368013A02721A020260180E7047B0207E
:100D3000704700BF002300B585B003AA0092194692
:100D40000C22FFF7D3FB039805B05DF804FB00BF4E
:100D5000F0E700BF2DE9F04305460E464FF00008CE
:100D600085B03046FFF7CAFFB028044600F0B080D7
:100D7000070620D500F0F003802B65D0902B36D0ED
:100D8000A02B78D0B02B47D0C02B00F0898000F08A
:100D9000F803D02B0BD100F00702013242F40022FD
:100DA000052301212846FFF791FD0028D9D009200D
:100DB00005B0BDE8F08300230DF10C09194687004A
:100DC000CDF800900D222846FFF790FBFFB2039B61
:100DD000043760064CBFDF1BFF180023CDF80090DE
:100DE00019460D2228460397FFF7A2FBB9E700F04A
:100DF0000D030D2BDBD0002303AF00F00F021946CB
:100E000000972846FFF772FB0023009719460D2232
:100E10002846FFF78DFBA4E7B1285ED0B22800F08A
:100E2000CB80B3287DD000F0FC03B42BBFD00123CE
:100E300000F007021A4442F4002219462846FFF740
:100E400045FD00288DD0B2E73046FFF757FF24025A
:100E50000443B4F5004FAAD000232401A2B21946DE
:100E60002846FFF733FD0028A1D114F4004F18BF26
:100E70004FF0010875E7C3434FF47F6203F00703A7
:100E80001A410023010702F47F6248BF42F4804206
:100E900019462846FFF71AFD00283FF462AF86E79F
:100EA000C62851D0C7285AD000F0F803C02B69D00B
:100EB000C82875D0C9287FF47AAF3046FFF71EFFE7
:100EC000020300F00F0002F470220130024367E7D2
:100ED000B8F1000F14D000206AE73046FFF70EFF8C
:100EE00000283FF464AF10F0F0037FF460AF0246D7
:100EF00019462846FFF7EAFC00283FF432AF56E7D0
:100F000003AC43460E22414600942846FFF7EEFA12
:100F10000094284643460F224146FFF709FB40460E
:100F200046E73046FFF7EAFE0123010300F00F0019
:100F300001F47021C2180A4328461946FFF7C6FC7F
:100F400000283FF40EAF32E73046FFF7D7FE01032B
:100F500000F00F00032301F47021421CEBE7304640
:100F6000FFF7CCFE024600283FF421AF10F0F0035B
:100F70007FF41DAF04212846FFF7A8FC00283FF4AA
:100F8000F0AE14E7032300F00F02013242F42022F6
:100F900019462846FFF79AFC00283FF4E2AE06E720
:100FA0003046FFF7ABFE00F0F00200F00F03103206
:100FB000013343EA0232F3E600230DF10C090D225E
:100FC0001946CDF800902846FFF790FA3046FFF713
:100FD00095FE02064FF002070CD5039B00F07F0040
:100FE000B840034430460393FFF788FE030607F139
:100FF0000707F2D40023039A00F07F04BC4002F5F7
:1010000001721444CDF8009019460D22284603942D
:10101000FFF78EFAA5E600BF30B503240D46C36C7A
:1010200085B05A688DF80C40DC791202083301A9AA
:10103000284601928DF80D400293FFF78BFE05B014
:1010400030BD00BF08B5FFF783FE806C08BD00BF50
:1010500008B5FFF77DFEC06CC37900EB8300083054
:1010600008BD00BF08B502F08FFD00BF08B5FFF74F
:10107000F9FF00BF7047FEE7FEE7FEE7FEE77047B7
:1010800008B5024800F07BF808BD00BFC42100206D
:1010900000B583B0114B9A6942F001029A619A69D6
:1010A00002F001020092009ADA6942F08052DA619D
:1010B000DB6903F080530193019B00220F216FF045
:1010C000010000F0DFFD064A536823F0E06343F0BF
:1010D0000073536003B05DF804FB00BF00100240D2
:1010E0000000014000B589B000220146192000F03F
:1010F000C9FD192000F0FAFD144B9A6942F4006210
:101100009A619B6903F400630193019B02A903A800
:1011100000F08CFC00F07AFC0D4BA3FB00239B0C31
:10112000013B0C480C4A026040F2E732C260436067
:1011300000230361836000F019F918B1012009B0A0
:101140005DF804FB034800F00AF8F8E700100240DD
:1011500083DE1B43C4210020002C0140704702683D
:10116000D36843F00103D3600268136843F00103BE
:10117000136000207047704770477047704710B584
:10118000044603681A6912F0020F11D0DA6812F0EF
:10119000020F0DD06FF002021A610123037703687A
:1011A0009B6913F0030F70D0FFF7E6FF002323774E
:1011B00023681A6912F0040F12D0DA6812F0040FD3
:1011C0000ED06FF004021A610223237723689B6913
:1011D00013F4407F5FD02046FFF7CEFF0023237734
:1011E00023681A6912F0080F12D0DA6812F0080F9B
:1011F0000ED06FF008021A61042323772368DB699D
:1012000013F0030F4ED02046FFF7B6FF00232377DD
:1012100023681A6912F0100F12D0DA6812F0100F5A
:101220000ED06FF010021A61082323772368DB6960
:1012300013F4407F3DD02046FFF79EFF0023237725
:1012400023681A6912F0010F03D0DA6812F0010F57
:1012500036D123681A6912F0800F03D0DA6812F0D1
:10126000800F34D123681A6912F0400F03D0DA6876
:1012700012F0400F32D123681A6912F0200F03D008
:10128000DA6812F0200F30D110BDFFF774FF20464E
:10129000FFF773FF8AE72046FFF76DFF2046FFF751
:1012A0006CFF9BE72046FFF766FF2046FFF765FFD0
:1012B000ACE72046FFF75FFF2046FFF75EFFBDE784
:1012C0006FF001021A61204602F0FAFBC1E76FF0ED
:1012D00080021A61204600F063F8C3E76FF0400215
:1012E0001A612046FFF74AFFC5E76FF020021A6136
:1012F000204600F054F8C7E703681B4A90420AD022
:10130000B0F1804F07D0A2F59432904203D002F59D
:101310008062904203D123F070034A681343124A5B
:1013200090420AD0B0F1804F07D0A2F5943290429B
:1013300003D002F58062904203D123F44073CA685F
:10134000134323F080034A69134303608B68C3622D
:101350000B688362044B984202D0012343617047BB
:101360000B690363F9E700BF002C0140A8B110B579
:10137000044690F83D305BB1022384F83D30211DD6
:101380002068FFF7B9FF012384F83D30002010BD2D
:1013900080F83C30FFF7E2FEEEE70120704770472F
:1013A0007047000008B5074A136843F01003136044
:1013B000032000F055FC0020FFF794FEFFF768FEC5
:1013C000002008BD00200240034A1168034B1B782F
:1013D0000B441360704700BF04220020000000206F
:1013E000014B1868704700BF0422002082B0084BF0
:1013F0001B68084AA2FB03235B0A00FB03F0019071
:1014000000BF019B5A1E0192002BF9D102B0704718
:1014100004000020D34D621070B582B0044603680A
:1014200013F0010F2CD0AB4B5B6803F00C03042BC3
:101430001DD0A84B5B6803F00C03082B12D0636827
:10144000B3F5803F41D0002B55D103F1804303F524
:1014500004331A6822F480321A601A6822F4802257
:101460001A6037E09B4B5B6813F4803FE7D0994BE1
:101470001B6813F4003F03D06368002B00F0AE81BB
:10148000236813F0020F76D0924B5B6813F00C0FB9
:101490005FD0904B5B6803F00C03082B54D023699A
:1014A000002B00F08A808C4B01221A60FFF798FF16
:1014B0000546884B1B6813F0020F75D1FFF790FFAC
:1014C000401B0228F5D903208BE1824A136843F4BC
:1014D00080331360636843B3FFF782FF05467D4B9B
:1014E0001B6813F4003FCBD1FFF77AFF401B642841
:1014F000F5D9032075E1B3F5A02F09D0754B1A6813
:1015000022F480321A601A6822F480221A60E1E71D
:1015100003F18043A3F53C331A6842F480221A6039
:101520001A6842F480321A60D4E7FFF759FF054683
:10153000684B1B6813F4003FA2D0FFF751FF401B1C
:101540006428F5D903204CE1624B5B6813F4803FBB
:10155000A5D1604B1B6813F0020F04D02369012B47
:1015600001D001203DE15B4A136823F0F803616973
:1015700043EAC1031360236813F0080F32D0A36954
:10158000002B5BD0554B01221A60FFF729FF05465F
:10159000504B5B6A13F0020F21D1FFF721FF401B74
:1015A0000228F5D903201CE14A4A136823F0F80306
:1015B000616943EAC1031360DDE7474B00221A600B
:1015C000FFF70EFF0546434B1B6813F0020FD2D006
:1015D000FFF706FF401B0228F5D9032001E1012097
:1015E000FFF704FF236813F0040F00F09780394BD6
:1015F000DB6913F0805F33D1364BDA6942F08052F9
:10160000DA61DB6903F080530193019B0125344BC0
:101610001B6813F4807F25D0E368012B36D0002BA4
:101620004CD103F1804303F504331A6A22F001021E
:101630001A621A6A22F004021A622CE0274B002276
:101640001A60FFF7CDFE0546224B5B6A13F0020FCE
:10165000C8D0FFF7C5FE401B0228F5D90320C0E023
:101660000025D4E71E4A136843F480731360FFF724
:10167000B7FE06461A4B1B6813F4807FCCD1FFF7E8
:10168000AFFE801B6428F5D90320AAE0114A136A33
:1016900043F001031362E36873B3FFF7A1FE06464C
:1016A0000C4B1B6A13F0020F37D1FFF799FE801B1A
:1016B00041F288339842F3D9032092E0052B11D0F0
:1016C000044B1A6A22F001021A621A6A22F004021A
:1016D0001A62E0E7001002400000424280044242E9
:1016E00000700040414B1A6A42F004021A621A6A02
:1016F00042F001021A62CEE7FFF772FE06463B4B4C
:101700001B6A13F0020F08D0FFF76AFE801B41F23C
:1017100088339842F3D9032063E0E5B9E369002BED
:101720005ED0324A526802F00C02082A5BD0022BCB
:1017300017D02F4B00221A60FFF752FE04462B4BA6
:101740001B6813F0007F47D0FFF74AFE001B0228FA
:10175000F5D9032045E0254AD36923F08053D361AE
:10176000DCE7234B00221A60FFF73AFE05461F4BC9
:101770001B6813F0007F06D0FFF732FE401B0228E3
:10178000F5D903202DE0236AB3F5803F1AD017491D
:101790004B6823F47413226A606A024313434B605C
:1017A000134B01221A60FFF71BFE04460F4B1B6808
:1017B00013F0007F0ED1FFF713FE001B0228F5D9AE
:1017C00003200EE0094A536823F40033A1680B4359
:1017D0005360DCE7002004E0002002E0012000E08C
:1017E000002002B070BD0120FBE700BF00100240E6
:1017F0006000424210B487B0164C94E80F000DF11F
:10180000180C0CE90F00238AADF80430124B5B680A
:1018100003F00C02082A1AD1C3F38342624412F87F
:10182000102C13F4803F05D10C4800FB02F007B0E8
:1018300010BC7047084B5B68C3F34043634413F824
:10184000143C074800FB02F0B0FBF3F0EFE704485C
:10185000EDE700BF583C00080010024000093D00C1
:1018600000127A00624B1B6803F007038B420CD214
:101870005F4A136823F007030B431360136803F0F8
:1018800007038B4201D00120704770B5036813F045
:10189000020F17D013F0040F04D0564A536843F4D4
:1018A000E0635360036813F0080F04D0514A536893
:1018B00043F4605353604F4A536823F0F003846845
:1018C000234353600D460446036813F0010F52D0C2
:1018D0004368012B23D0022B28D0464A126812F00D
:1018E000020F00F0828043494A6822F0030213434A
:1018F0004B60FFF775FD06466368012B1DD0022B78
:101900002AD03C4B5B6813F00C0F34D0FFF768FD16
:10191000801B41F288339842F3D9032064E0354AB2
:10192000126812F4003FDED101205DE0314A1268F6
:1019300012F0007FD7D1012056E02E4B5B6803F0F8
:101940000C03042B17D0FFF74BFD801B41F28833AB
:101950009842F2D9032047E0264B5B6803F00C0362
:10196000082B08D0FFF73CFD801B41F288339842DA
:10197000F2D9032038E01E4B1B6803F00703AB428B
:101980000CD91B4A136823F007032B431360136819
:1019900003F00703AB4201D0012025E0236813F0D8
:1019A000040F06D0134A536823F4E063E1680B4345
:1019B0005360236813F0080F07D00E4A536823F4CE
:1019C0006053216943EAC1035360FFF713FF094BDA
:1019D0005B68C3F30313084AD35CD840074B186015
:1019E0000020FFF77FFB002070BD0120FCE700BF57
:1019F0000020024000100240943C00080400002037
:101A0000014B1868704700BF0400002008B5FFF7BD
:101A1000F7FF044B5B68C3F3C223034AD35CD8408F
:101A200008BD00BF00100240A43C00080F23036063
:101A30000B4B5A6802F0030242605A6802F0F0024F
:101A400082605A6802F4E062C2605B68DB0803F4FB
:101A5000E0630361034B1B6803F007030B607047EF
:101A60000010024000200240F0B482B0002635464B
:101A7000A1E0002C59D0012C00D1CE68FF2B68D8F2
:101A80008446FF2B68D8AC00DCF800200F27A74065
:101A900022EA070206FA04F42243CCF800204A683E
:101AA00012F0805F00F086805E4A946944F0010481
:101AB0009461926902F001020192019AAC08A71C9C
:101AC000594A52F8272005F00307BF004FF00F0CCA
:101AD0000CFA07FC22EA0C0C544A904242D002F560
:101AE000806290427FD002F5806290427DD002F504
:101AF0008062904234D0042235E04D4FBC4214D075
:101B00000BD94C4FBC4210D007F58037BC420CD0EB
:101B1000A7F58017BC42B1D107E0A7F58017BC42FA
:101B200003D007F58037BC42A8D18C687CB1012C6A
:101B300008D042610826A1E7CE6808369EE7CE6845
:101B40000C369BE70261082698E7002696E70426F4
:101B500094E700F1040C94E7A5F10804A40093E7CE
:101B6000032200E00022BA4042EA0C0202342E4F67
:101B700047F824204A6812F4803F38D02E4C22685F
:101B80001A4322604A6812F4003F36D02A4C626839
:101B90001A4362604A6812F4801F34D0264CA2684F
:101BA0001A43A2604A6812F4001F32D0224CE26845
:101BB0001343E36001350F2D31D80122AA400B6891
:101BC00013409A42F6D14C68122CB8D095D8022C0A
:101BD000B2D07FF64EAF032CB7D0112C7FF44EAFAE
:101BE000CE6804364AE70122BDE70222BBE7124C69
:101BF000226822EA03022260C4E70F4C626822EAEC
:101C000003026260C6E70C4CA26822EA0302A260EB
:101C1000C8E7094CE26822EA0303E360CAE702B0BE
:101C2000F0BC704700100240000001400008014075
:101C300000002110000031100004014083681942A7
:101C400001D1002070470120704712B909040161D9
:101C5000704701617047C3685940C1607047000018
:101C6000074AD36823F4E0631B041B0C000200F452
:101C7000E060184340F0BF6040F40030D06070472F
:101C800000ED00E030B4174BDB68C3F30223C3F16F
:101C90000704042C28BF04241D1D062D18D9033B5E
:101CA0004FF0FF3505FA04F421EA0401994005FAE2
:101CB00003F322EA0303194300280BDB0901C9B22D
:101CC00000F1604000F5614080F8001330BC7047BF
:101CD0000023E5E700F00F000901C9B2024B1954D7
:101CE000F4E700BF00ED00E014ED00E000F01F029B
:101CF000400901239340024A42F82030704700BF58
:101D000000E100E00F4B1A6842F001021A605968C6
:101D10000D4A0A405A601A6822F0847222F4803216
:101D20001A601A6822F480221A605A6822F4FE02AD
:101D30005A604FF41F029A60044B4FF000629A60A1
:101D4000704700BF001002400000FFF800ED00E007
:101D500000F1080343604FF0FF328260C36003610B
:101D600000230360704700230361704743684B60A2
:101D70009A688A609A6851609960086103680133C3
:101D80000360704730B40D68B5F1FF3F02D000F139
:101D9000080202E0026904E01A4653681C68AC427B
:101DA000FAD953684B6099608A6051600861036892
:101DB0000133036030BC70470369426881689160F9
:101DC0008268416851605A68824205D000220261EF
:101DD000186801381860704782685A60F6E710B5D5
:101DE000044601F06FFCA26BE36B9A4204D000241E
:101DF00001F08AFC204610BD0124F9E710B5044625
:101E000001F060FCA36B23B1002401F07DFC2046AF
:101E100010BD0124F9E770B504461646856B026CC7
:101E20005AB903681BB100200135A56370BD406835
:101E300000F0C4FF00236360F6E76EB9806801F02C
:101E400095FE226CA3681344A3606268934219D381
:101E50002368A3600020E7E7C06801F087FE226CDA
:101E60005242E3681344E36021688B4202D2636804
:101E70001A44E260022E01D00020D5E725B1013DD1
:101E80000020D1E70020CFE70020CDE7026C72B13F
:101E900010B5C3681344C3604468A34201D3036808
:101EA000C3600C46C168204601F060FE10BD70475B
:101EB00038B5054601F006FC95F8454064B203E0EC
:101EC00000F016FF013C64B2002C08DD6B6A33B1F0
:101ED00005F1240000F070FE0028F3D0F0E7FF23A6
:101EE00085F8453001F010FC01F0ECFB95F844401A
:101EF00064B203E000F0FCFE013C64B2002C08DD9B
:101F00002B6933B105F1100000F056FE0028F3D024
:101F1000F0E7FF2385F8443001F0F6FB38BD000000
:101F200038B540B94FF0500383F31188BFF36F8F7A
:101F3000BFF34F8FFEE704460D4601F0C3FB216857
:101F4000E26B236C03FB021060600020A063A160C1
:101F5000013A02FB0313E360FF2384F8443084F862
:101F60004530A5B923691BB901F0CEFB012038BD6E
:101F700004F1100000F020FE0028F5D0084B4FF0CF
:101F800080521A60BFF34F8FBFF36F8FECE704F1FD
:101F90001000FFF7DDFE04F12400FFF7D9FEE3E7B0
:101FA00004ED00E010B5029B0C4639B11A60D8630D
:101FB0001C6401211846FFF7B3FF10BD1B60F6E754
:101FC00040B94FF0500383F31188BFF36F8FBFF315
:101FD0004F8FFEE7F0B583B0054611B101FB00F06D
:101FE00000E0002017460C46483001F05BFA064638
:101FF00038B100903B4600F1480221462846FFF7E1
:10200000D1FF304603B0F0BDF0B585B0019260B1AC
:10201000044699B9026C8AB14FF0500383F31188DA
:10202000BFF36F8FBFF34F8FFEE74FF0500383F383
:102030001188BFF36F8FBFF34F8FFEE7022B0BD1D9
:10204000E26B012A08D04FF0500383F31188BFF3ED
:102050006F8FBFF34F8FFEE71E460F4600F04EFE18
:1020600050B9019B53B14FF0500383F31188BFF374
:102070006F8FBFF34F8FFEE700253AE0002538E071
:10208000324639462046FFF7C6FE636A4BB9A8B10F
:102090003B4B4FF080521A60BFF34F8FBFF36F8FEF
:1020A0000CE004F1240000F087FD38B1344B4FF010
:1020B00080521A60BFF34F8FBFF36F8F01F024FB84
:1020C000012005B0F0BD01F01FFB0020F9E702A8D8
:1020D00000F0B8FD012519E0002384F8443021E028
:1020E000002384F8453023E02046FFF7E1FE00F0AE
:1020F00001FC01F0E7FAA26BE36B9A42C0D3022E17
:10210000BED0019B002BDED0002DE0D001F0FCFA08
:1021100000F056FB01F0D6FA94F844305BB2B3F10C
:10212000FF3FD9D094F845305BB2B3F1FF3FD7D031
:1021300001F0EAFA01A902A800F09AFDC8B9204608
:10214000FFF74DFE0028CFD0019904F1100000F0F8
:10215000FFFC2046FFF7ACFE00F0CCFB0028C8D106
:10216000074B4FF080521A60BFF34F8FBFF36F8F52
:10217000BFE72046FFF79CFE00F0BCFB0020A0E775
:1021800004ED00E02DE9F84360B1044699B9006C14
:1021900088B14FF0500383F31188BFF36F8FBFF303
:1021A0004F8FFEE74FF0500383F31188BFF36F8F1B
:1021B000BFF34F8FFEE7022B0BD1E06B012808D055
:1021C0004FF0500383F31188BFF36F8FBFF34F8F2E
:1021D000FEE71F469046894601F04CFBEFF311865F
:1021E0004FF0500383F31188BFF36F8FBFF34F8F0E
:1021F000A26BE36B9A4203D3022F01D000200FE0C1
:1022000094F845506DB23A4649462046FFF703FE22
:10221000B5F1FF3F08D06B1C5BB284F8453001205C
:1022200086F31188BDE8F883636A5BB104F124008A
:1022300000F0C2FC40B1B8F1000F07D00120C8F88F
:102240000000EDE70120EBE70120E9E70120E7E7E7
:102250002DE9F04184B0019260B1044699B9026C55
:102260008AB14FF0500383F31188BFF36F8FBFF330
:102270004F8FFEE74FF0500383F31188BFF36F8F4A
:10228000BFF34F8FFEE71F46884600F037FD50B979
:10229000019B53B14FF0500383F31188BFF36F8F4D
:1022A000BFF34F8FFEE700265FE000265DE0E668A3
:1022B00041462046FFF7EAFDDFB9013DA5632368EB
:1022C00013B900F0D3FD6060236963B104F110001D
:1022D00000F072FC38B1464B4FF080521A60BFF3E9
:1022E0004F8FBFF36F8F01F00FFA012004B0BDE8EC
:1022F000F081E660636A002BF5D004F1240000F061
:102300005BFC0028EFD03A4B4FF080521A60BFF3CD
:102310004F8FBFF36F8FE6E701F0F6F90020E5E796
:1023200002A800F08FFC012629E0002384F8443045
:1023300031E0002384F8453033E001F0C3F96068F0
:1023400000F0ECFC01F0E0F93BE02046FFF7B0FDC7
:1023500000F0D0FA09E02046FFF7AAFD00F0CAFA23
:102360002046FFF74BFD002840D101F0ABF9A56BEB
:10237000002D9CD1019B002BCED0002ED0D001F09F
:10238000C3F900F01DFA01F09DF994F844305BB2F6
:10239000B3F1FF3FC9D094F845305BB2B3F1FF3FD2
:1023A000C7D001F0B1F901A902A800F061FC002832
:1023B000D1D12046FFF722FD0028C6D02368002B8C
:1023C000BBD0019904F1240000F0C2FB2046FFF7C6
:1023D0006FFD00F08FFA0028C7D1054B4FF08052F7
:1023E0001A60BFF34F8FBFF36F8FBEE700207DE70A
:1023F00004ED00E00023072B0CD8074A52F83320E5
:102400000AB10133F7E7044A42F8331002EBC30381
:1024100058607047704700BF0822002070B504461E
:102420000D46164601F04EF994F844305BB2B3F114
:10243000FF3F0DD094F845305BB2B3F1FF3F0BD0B6
:1024400001F062F9A36B5BB12046FFF731FD70BD6F
:10245000002384F84430EDE7002384F84530EFE7AB
:102460003246294604F1240000F08AFBECE7000024
:10247000084B1B681B683BB1064B1B68DB68DB68BD
:102480005A68054B1A607047034B4FF0FF321A60D1
:10249000704700BF940000206C01002010B5044676
:1024A000006B01F083F8204601F080F810BD2DE9A3
:1024B000F04780469946089D099F0A9C266B02F1C9
:1024C0008042013A06EB820626F0070600230F2B16
:1024D00007D8C85CE21882F83400CA5C0AB101333C
:1024E000F5E7002384F84330062D00D90625E56280
:1024F00065644FF0000AC4F848A0201DFFF733FCC4
:1025000004F11800FFF72FFC2461C5F10705A56150
:102510006462C4F84CA084F850A04A464146304654
:1025200001F0A6F8206007B13C60BDE8F08700002C
:1025300038B5002407E004EB840293000E481844E9
:10254000FFF706FC0134062CF5D90C4D2846FFF7A1
:10255000FFFB0B4C2046FFF7FBFB0A48FFF7F8FB9D
:102560000948FFF7F5FB0948FFF7F2FB084B1D6030
:10257000084B1C6038BD00BF9C00002040010020BB
:102580005401002074010020A00100208C010020D3
:10259000940000209800002010B5044601F092F845
:1025A000204A1368013313601F4B1B685BB11F4B3C
:1025B0001B686BB91C4B1B68DA6AE36A9A4207D83E
:1025C000194B1C6004E0184B1C601368012B26D0CB
:1025D000174A136801331360E36A01229A401549D0
:1025E000086802430A6003EB83039A00211D124826
:1025F0001044FFF7BBFB01F087F80C4B1B686BB175
:10260000094B1B68DA6AE36A9A4207D20B4B4FF018
:1026100080521A60BFF34F8FBFF36F8F10BDFFF76B
:1026200087FFD5E7280100209000002088010020C6
:10263000380100203C0100209C00002004ED00E057
:1026400070B504460E461D4B1D681D4B18680430BE
:10265000FFF7B2FB50B91A4B1B68DA6A012303FA81
:1026600002F218490B6823EA02030B60B4F1FF3F42
:1026700013D02C44124B1B685C60A54216D8124B39
:1026800018680F4B19680431FFF77CFB0F4B1B6870
:10269000A34212D90D4B1C600FE0002EE9D0084B6D
:1026A000196804310A48FFF761FB06E0094B186816
:1026B000034B19680431FFF765FB70BDB4010020BE
:1026C000900000203C010020940000206C010020BC
:1026D0008C010020980000202DE9F04385B00746CA
:1026E000884615469946900000F0DCFEF8B1064693
:1026F000542000F0D7FE0446A8B10663D4B10023ED
:10270000039302940D9B01930C9B00934B462A4626
:1027100041463846FFF7CBFE2046FFF73DFF01203C
:1027200005B0BDE8F083304600F040FFE6E74FF02B
:10273000FF30F5E74FF0FF30F2E7000000B583B05F
:10274000194B019300230093802218491848FFF782
:10275000C3FF012807D0012808D0B0F1FF3F1AD0ED
:1027600003B05DF804FB00F011FCF4E74FF05003F8
:1027700083F31188BFF36F8FBFF34F8F0D4B4FF073
:10278000FF321A600C4B01221A600C4B00221A60B7
:1027900001F024F8E4E74FF0500383F31188BFF30E
:1027A0006F8FBFF34F8FFEE768010020AC3C00083D
:1027B000912A00086C01002088010020B40100204B
:1027C000024A136801331360704700BF34010020D0
:1027D000014B1868704700BFB4010020F8B53A4BB0
:1027E0001B68002B64D1394B1D6801351D60C5B9CC
:1027F000374B1B681B6843B14FF0500383F31188BC
:10280000BFF36F8FBFF34F8FFEE7314A1168314B33
:10281000186810601960304A136801331360FFF7BD
:1028200027FE2E4B1B68AB4238D900242C4B1B686B
:10283000DB6A03EB83039A002A4B9B58012B3CD99C
:1028400001243AE00124224B1B681B6843B3204B50
:102850001B68DB68DE6873689D4226D3371D3846E7
:10286000FFF7AAFAB36A1BB106F11800FFF7A4FA42
:10287000F36A01229A401C49086802430A6003EB8C
:1028800083039A00394617481044FFF76FFAF26A3B
:10289000134B1B68DB6A9A42D4D2D4E70024D2E7F8
:1028A0000E4B4FF0FF321A60C0E70C4A1360BDE7D1
:1028B0000E4A13680133136000240D4B1B6803B1EB
:1028C00001242046F8BD00BF34010020B4010020DF
:1028D0009400002098000020700100206C0100206E
:1028E000900000209C0000203C01002030010020CE
:1028F000B801002038B5334B1B6843B94FF0500383
:1029000083F31188BFF36F8FBFF34F8FFEE700F0A3
:10291000D9FE2C4B1A68013A1A601B68002B4DD166
:10292000294B1B6823B9002400F0EEFE204638BD79
:102930000024264B1B681BB3244BDB68DC6804F1C6
:102940001800FFF739FA251D2846FFF735FAE36A24
:1029500001229A401E49086802430A6003EB830380
:102960009A0029461B481044FFF700FAE26A1A4B06
:102970001B68DB6A9A42DCD3184B01221A60D8E745
:102980000CB1FFF775FD164B1C6854B1FFF726FF1D
:1029900010B1124B01221A60013CF7D1104B0022FA
:1029A0001A600E4B1B685BB10E4B4FF080521A60E1
:1029B000BFF34F8FBFF36F8F0124B5E70024B3E758
:1029C0000024B1E734010020280100207401002018
:1029D0003C0100209C00002090000020B801002055
:1029E0003001002004ED00E010B5A8B104460F4B03
:1029F0001B6843B14FF0500383F31188BFF36F8F0F
:102A0000BFF34F8FFEE7FFF7DBFE00212046FFF705
:102A100017FEFFF76FFF38B9054B4FF080521A6071
:102A2000BFF34F8FBFF36F8F10BD00BF3401002085
:102A300004ED00E0134B1B6813B310B5FFF7C0FEA5
:102A4000114B1C68FFF756FF24B90E4B1B68002B77
:102A5000F4D110BD00F036FE0B4BDB68DC68201DA6
:102A6000FFF7AAF9094A1368013B1360054A136886
:102A7000013B136000F048FE2046FFF70FFDE4E73E
:102A8000704700BF2C010020A00100202801002079
:102A900008B5FFF7CFFF064B1B68012BF9D9054B93
:102AA0004FF080521A60BFF34F8FBFF36F8FF0E784
:102AB0009C00002004ED00E0204B1B681BB1204B64
:102AC00001221A6070471E4B00221A601D4B1B68C2
:102AD000B3FA83F3DBB2C3F11F0303EB83018A0074
:102AE00019498A5842B94FF0500383F31188BFF354
:102AF0006F8FBFF34F8FFEE710B413489A00D418BE
:102B0000A10001444C6864684C601A44910008318B
:102B1000084484420AD003EB83039A000A4B13440F
:102B20005B68DA68094B1A6010BC70476168064838
:102B3000142202FB03025160EDE700BF34010020C4
:102B4000B80100203C0100209C00002090000020E3
:102B500040B94FF0500383F31188BFF36F8FBFF379
:102B60004F8FFEE710B50C46044B19681831FFF77C
:102B700009F901212046FFF763FD10BD90000020F8
:102B800038B540B94FF0500383F31188BFF36F8F0E
:102B9000BFF34F8FFEE70C461546064A1168183101
:102BA000FFF7E4F80DB14FF0FF3429462046FFF758
:102BB00047FD38BD9000002038B5C368DC6844B9D3
:102BC0004FF0500383F31188BFF36F8FBFF34F8F24
:102BD000FEE704F118052846FFF7EEF8134B1B68D3
:102BE000E3B9251D2846FFF7E7F8E36A01229A407A
:102BF0000F49086802430A6003EB83039A002946E1
:102C00000C481044FFF7B2F8E26A0B4B1B68DB6A12
:102C10009A4208D90120094B186038BD2946084856
:102C2000FFF7A4F8F0E70020F7E700BF3401002029
:102C30003C0100209C00002090000020B8010020F2
:102C40007401002030B1084A12680260074A126815
:102C5000426070474FF0500383F31188BFF36F8FCA
:102C6000BFF34F8FFEE700BF70010020B4010020CA
:102C700038B550B1044689B94FF0500383F3118839
:102C8000BFF36F8FBFF34F8FFEE74FF0500383F317
:102C90001188BFF36F8FBFF34F8FFEE70D4600F033
:102CA00011FD114B19682B68B3F1FF3F18D0206854
:102CB0000E4A1268904202D062688A4212D9626853
:102CC000881A834204D8012400F01EFD204638BD36
:102CD000521A13442B602046FFF7B4FF0024F3E799
:102CE0000024F1E70124EFE7B40100207001002087
:102CF000014B01221A607047B8010020054B1B6888
:102D000033B1054B1B680BB10020704702207047A0
:102D1000012070478801002034010020002845D0A0
:102D200038B50446C26A22490968C96A8A4214D27F
:102D30008169002905DB1E490968C96AC1F10701DB
:102D40008161606902EB820291001A4A0A44904252
:102D500004D0174A1268D26AE26238BD251D28469F
:102D6000FFF72AF890B1124B1B68DB6AE36201227D
:102D70009A401149086802430A6003EB83039A00F2
:102D800029460C481044FEF7F1FFE6E7E36A03EB3F
:102D900083018A0007498A58002AE4D101229A4017
:102DA00005490B6823EA02030B60DCE7704700BFAC
:102DB000900000209C0000203C010020002849D009
:102DC00038B50446264A1268824208D04FF05003B4
:102DD00083F31188BFF36F8FBFF34F8FFEE7826CD1
:102DE00042B94FF0500383F31188BFF36F8FBFF3E5
:102DF0004F8FFEE7013A8264C06A616C88422BD033
:102E000062BB251D2846FEF7D7FF70B9E26A14237E
:102E100003FB02F31349CB583BB9012303FA02F237
:102E200011490B6823EA02030B60636CE362C3F190
:102E30000702A261012404FA03F20B490868024365
:102E40000A602946074A142000FB0320FEF78EFF84
:102E5000204638BD002070470020FAE70020F8E740
:102E6000900000209C0000203C010020054B1B68C6
:102E700023B1044B1A68936C01339364014B1868B7
:102E8000704700BF90000020064B1A681368B3FA21
:102E900083F35B09036013B9D36818687047002097
:102EA000704700BFBC01002008B54160006191423D
:102EB0000CD8D21A83699A4201D3012010E0011D77
:102EC000094B1868FEF75EFF002009E09A4201D224
:102ED000994206D2011D054B1868FEF753FF0020EA
:102EE00008BD0120FCE700BFC0010020BC0100209C
:102EF00038B500F0E7FB0F4B1B6813B100F004FC82
:102F000038BD0D4D2846FEF723FF0C4C2046FEF73A
:102F10001FFF0B4B1D600B4B1C6000220C210A2075
:102F2000FFF74EF8034B18600028E7D00649FFF77B
:102F300061FAE3E7F0010020C4010020D80100207D
:102F4000BC010020C0010020B43C00082DE9F04184
:102F5000079C41B94FF0500383F31188BFF36F8F83
:102F6000BFF34F8FFEE70F4674B11D4616468046ED
:102F7000FFF7BEFFC4F80080A761E6612562069BEB
:102F80006362201DFEF7EFFEBDE8F08100B583B05F
:102F9000FFF7AEFF0D4B1B685BB10D4B0193032395
:102FA000009300234FF480720A490B48FFF794FB0B
:102FB00040B94FF0500383F31188BFF36F8FBFF315
:102FC0004F8FFEE703B05DF804FB00BFF001002067
:102FD000F4010020BC3C0008D93200082DE9F04182
:102FE00082B005460E4617469846282000F05AFA49
:102FF000044640B10190089B009343463A4631464F
:103000002846FFF7A3FF204602B0BDE8F08100008C
:10301000C8B130B585B015460446174A106840B3AC
:103020001A4601910295039405291DDCFFF766FEFF
:10303000022811D000231A4601A90F480068FEF7A4
:10304000E3FF05B030BD4FF0500383F31188BFF3A9
:103050006F8FBFF34F8FFEE70023089A01A9064840
:103060000068FEF7D1FFECE7002301A9FFF78AF81B
:10307000E7E70020E5E700BFF001002070B582B06F
:103080001A4B1B681A6852B3DB681E68DC68251D82
:103090002846FEF791FE636A20469847E369012BB4
:1030A000EED1A36933449E4207D26360246129466E
:1030B0000E4B1868FEF766FEE2E7002100910B4612
:1030C00032462046FFF7A4FF0028D9D14FF0500325
:1030D00083F31188BFF36F8FBFF34F8FFEE7044A6E
:1030E000106802490860136002B070BDBC01002086
:1030F000C001002038B50546FFF76AFB0446074BC0
:103100001B68834205D800232B60044B1C602046BB
:1031100038BDFFF7B3FF01232B60F6E7EC01002079
:1031200070B582B005460E46144B1B68DB68DC6840
:10313000201DFEF741FEE369012B04D0636A20469F
:10314000984702B070BDA1692B46324629442046FB
:10315000FFF7AAFE0028F1D0002100910B462A4675
:103160002046FFF755FF0028E8D14FF0500383F3C6
:103170001188BFF36F8FBFF34F8FFEE7BC010020B4
:1031800070B582B006460C46FFF71AFB01A8FFF7A0
:10319000B1FF019B1BBB05460CB9B04218D22CB144
:1031A000114B1B681C68B4FA84F464092246711B35
:1031B0000E4B1868FFF732F9FFF79CFB88B90C4BF0
:1031C0004FF080521A60BFF34F8FBFF36F8F08E04C
:1031D000FFF790FB29463046FFF7A2FF01E0FFF71B
:1031E00089FB02B070BD00BFC0010020F0010020CB
:1031F00004ED00E030B587B000231A4603A9354836
:103200000068FFF725F8002861D0039B002BF3DB53
:10321000059C636913B1201DFEF7CEFD02A8FFF7E0
:1032200069FF039B092BE7D801A252F823F000BFE6
:10323000593200085932000859320008F9310008A3
:10324000A1320008C732000859320008593200087C
:10325000F9310008A13200080499A5690B4602461D
:1032600029442046FFF720FE0028C5D0636A204687
:103270009847E369012BBFD1A269002100910B4659
:10328000049802442046FFF7C3FE0028B4D14FF053
:10329000500383F31188BFF36F8FBFF34F8FFEE7A7
:1032A0000499A16131B10346024601442046FFF76B
:1032B000FBFDA1E74FF0500383F31188BFF36F8F3D
:1032C000BFF34F8FFEE7204600F070F994E707B098
:1032D00030BD00BFF001002000B583B001A8FFF7AA
:1032E000D3FD0199FFF74CFFFFF784FFF6E7842831
:1032F00001D00330704700207047EFF305800030A5
:1033000018BF0120704708B5FFF718FA002008BD64
:10331000F0B585B00F46446805680669B0F9080045
:10332000FFF7E5FF03AB019300903B46B2B229469D
:103330002046FFF7D1F9012802D1039805B0F0BD6E
:103340000020FBE708B5034600B901231846FFF744
:103350004BFB002008BD000000B583B013460129D7
:1033600009D000220168009101210448FFF736FED0
:1033700003B05DF804FB0122F4E700BFB03C000895
:1033800030B585B00546002303930C4601B90124EE
:10339000FFF7B3FFA8B10023009303AB2246092136
:1033A0002846FFF735FE012817D1039BBBB10E4B12
:1033B0004FF080521A60BFF34F8FBFF36F8F002022
:1033C00009E000230093224604212846FFF720FE4F
:1033D000012806D1002005B030BDFF20FBE700200A
:1033E000F9E7FF20F7E700BF04ED00E0124A12F012
:1033F000070F1ED0D11D21F00701C1F5FD53134465
:103400000A460E480260002141601344083B23F045
:1034100007030B48036059601960991A51601360E3
:10342000084B1960084B1960084B4FF000421A60B6
:1034300070474FF4FD53E4E7FC010020A821002071
:10344000F8010020A4210020A02100209C210020C0
:1034500010B4124B1A6882421AD359685C1884421D
:1034600003D1406801445960184641684418A2429B
:1034700012D10B4C2468A2420CD052681144416016
:103480001A6812680260984200D0186010BC704739
:103490001346DFE70460F6E70260F4E7A8210020A6
:1034A000F801002070B50446FFF78AF93A4B1B6813
:1034B000BBB13A4B1B681C4263D1ACB1083414F069
:1034C000070F11D024F00704083404F007035BB1A0
:1034D0004FF0500383F31188BFF36F8FBFF34F8F0B
:1034E000FEE7FFF783FFE4E7002C4CD02C4B1B6872
:1034F000A3424AD32B4B1D6801E02B4615466A6850
:10350000A24202D22A68002AF7D1234A1268AA42AC
:103510003DD01E6808362A681A606B681B1B102B8A
:1035200010D9281910F0070F08D04FF0500383F37B
:103530001188BFF36F8FBFF34F8FFEE743606C605E
:10354000FFF786FF6A6816490B689B1A0B601649DD
:1035500009688B4201D214490B60104B1B6813435E
:103560006B6000232B60FFF7C5F916F0070F10D032
:103570004FF0500383F31188BFF36F8FBFF34F8F6A
:10358000FEE70026EFE70026EDE70026EBE7002642
:10359000E9E7304670BD00BFF80100209C21002003
:1035A000A0210020A8210020A421002080B338B54C
:1035B0000446A0F1080550F8042C164909680A428F
:1035C00008D14FF0500383F31188BFF36F8FBFF31F
:1035D0004F8FFEE750F8080C40B14FF0500383F3D3
:1035E0001188BFF36F8FBFF34F8FFEE722EA01020E
:1035F00044F8042CFFF7E4F854F8041C064A136856
:103600000B4413602846FFF723FFFFF773F938BD1B
:10361000704700BF9C210020A02100200B4B1B689D
:10362000B3F1FF3F08D04FF0500383F31188BFF38D
:103630006F8FBFF34F8FFEE74FF0500383F3118876
:10364000BFF36F8FBFF34F8FFEE700BF080000206E
:1036500006480068006880F3088862B661B6BFF368
:103660004F8FBFF36F8F00DF00BF000008ED00E059
:103670004FF0807340F8043C21F0010140F8081C31
:10368000034B40F80C3C40F8202C4038704700BFFA
:103690001D360008000000000000000000000000CF
:1036A000074B19680868B0E8F00F80F30988BFF38A
:1036B0006F8F4FF0000080F311884EF00D0E7047B1
:1036C000900000204FF0500383F31188BFF36F8FF9
:1036D000BFF34F8F0A4A136801331360012B00D0E8
:1036E0007047084B1B6813F0FF0FF9D04FF05003E1
:1036F00083F31188BFF36F8FBFF34F8FFEE700BFD7
:103700000800002004ED00E0094B1B6843B94FF0AE
:10371000500383F31188BFF36F8FBFF34F8FFEE722
:10372000013B034A13600BB983F31188704700BF54
:103730000800002000000000000000000000000061
:10374000EFF30980BFF36F8F0D4B1A6820E9F00F7C
:1037500010602DE908404FF0500080F31188FFF70A
:10376000ABF94FF0000080F31188BDE808401968FC
:103770000868B0E8F00F80F30988BFF36F8F7047D7
:103780009000002008B54FF0500383F31188BFF379
:103790006F8FBFF34F8FFFF721F818B1034B4FF036
:1037A00080521A60002383F3118808BD04ED00E005
:1037B000064B1B68064AA2FB03239B09013B054AF3
:1037C0001360054B07221A60704700BF04000020F9
:1037D000D34D621014E000E010E000E000B583B0CB
:1037E0001F4B1A78D2B20192FF221A701B78DBB2FB
:1037F0008DF803309DF8033003F05003194A13701D
:10380000194B07221A6009E0174A1368013B13603D
:103810009DF803305B00DBB28DF803309DF8033078
:1038200013F0800FF0D1104A13681B0203F4E06319
:103830001360019BDBB20A4A13700C4B1A6842F406
:1038400070021A601A6842F070421A60FFF7B0FF07
:10385000074B00221A60FFF7FBFEFFF7DFFE00BFF9
:1038600000E400E0B0210020B421002020ED00E0C1
:1038700008000020EFF305830F2B0FD9104A9B5C43
:10388000DBB2104A12789A4208D94FF0500383F302
:103890001188BFF36F8FBFF34F8FFEE70A4B1B6892
:1038A00003F4E063094A1268934208D94FF05003C9
:1038B00083F31188BFF36F8FBFF34F8FFEE770471D
:1038C000F0E300E0B02100200CED00E0B421002086
:1038D000014B01221A6070470C000020F0B589B03E
:1038E00000240494059406940794254B9A6942F0A9
:1038F00010029A619A6902F010020092009A9A6985
:1039000042F020029A619A6902F020020192019A23
:103910009A6942F008029A619A6902F008020292DA
:10392000029A9A6942F004029A619B6903F00403C7
:103930000393039B134F22464FF420513846FEF762
:1039400084F90225049505940126069604A90E48DB
:10395000FEF78AF84FF400630493059606940795E2
:1039600004A93846FEF780F84FF4005304930596F7
:103970000694079504A90548FEF776F809B0F0BD4E
:1039800000100240000C01400008014000100140FE
:1039900008B5094B1B68012BFBD1074B00221A60AD
:1039A0004FF400610548FEF756F94FF47A71044B65
:1039B0001868FFF7E5FCECE70C000020000C014064
:1039C000B821002008B502210A48FEF737F900287F
:1039D000F9D102210748FEF731F90028F9D04FF458
:1039E000C870FFF7AFFC4FF400510348FEF733F9FE
:1039F000E9E700BF000801400010014030B591B078
:103A00000024089409940B940C9401940294039458
:103A100004940594012206924FF4803307930A928E
:103A200002250D950E934FF4E0130F9306A8FDF7B2
:103A3000F3FC0F230193029503944FF480630493E6
:103A40000594294601A8FDF70DFF11B030BD000017
:103A500070B58CB0FDF7A6FCFFF7D0FFFFF73EFF77
:103A60000CA8124B40F8043D00221146FFF774FCED
:103A70000F4B18600F4C06AD26460FCE0FC53368AE
:103A80002B60002106A8FFF743FC0B4B186001AD2B
:103A900014340FCC0FC523682B60002101A8FFF759
:103AA00037FC064B1860FFF72EFCFEE7D138000804
:103AB000B82100206C3C0008BC210020C02100205F
:103AC00008B50268034B9A4200D008BDFDF77CFCA4
:103AD000FBE700BF002C0140002103E00B4B5B58CB
:103AE000435004310A480B4B42189A42F6D30A4A13
:103AF00002E0002342F8043B084B9A42F9D3FEF758
:103B000001F900F00FF8FFF7A3FF7047083E000827
:103B10000000002074000020740000204C220020CF
:103B2000FEE7000070B500250C4E0D4CA41BA41040
:103B3000A54209D100F084F800250A4E0A4CA41BC6
:103B4000A410A54205D170BD56F82530984701351F
:103B5000EEE756F8253098470135F2E7003E0008B9
:103B6000003E0008003E0008043E000810B5431E59
:103B70000A44914200D110BD11F8014B03F8014FE6
:103B8000F7E70000FEE700BF08B5062000F02CF8BC
:103B90000120FFF7F7FF1F2938B504460D4604D969
:103BA000162303604FF0FF3038BD426C12B152F85B
:103BB00021304BB9204600F031F82A460146204614
:103BC000BDE8384000F018B8012B0AD0591C03D1C9
:103BD000162303600120E7E70024284642F8254029
:103BE00098470020E0E70000024B01461868FFF705
:103BF000D2BF00BF1000002038B50023064C054698
:103C000008461146236000F013F8431C02D12368D4
:103C100003B12B6038BD00BF4822002000F000B87F
:103C20005822024B4FF0FF301A60704748220020A4
:103C30005822024B4FF0FF301A6070474822002094
:103C4000F8B500BFF8BC08BC9E467047F8B500BF89
:083C5000F8BC08BC9E46704759
:103C580002030405060708090A0B0C0D0E0F1010C5
:103C680001020000CC3C0008913900080000000067
:103C78000000000080000000C43C0008C5390008AE
:103C880000000000000000008000000000000000AC
:103C980000000000010203040607080900000000F4
:103CA8000102030449444C4500000000546D725160
:103CB80000000000546D7220537663007461736BCA
:0C3CC800320000007461736B31000000DA
:103CD40008B10181B0B000840000000008B1018186
:103CE400B0B000840000000008B10181B0B00084CD
:103CF4000000000008B10181B0B0008400000000A1
:0C3D040008B10181B0B000840000000094
:103D100040C4FF7F01000000D4C4FF7FB0A902802F
:103D200074C5FF7FB0B0A880C4C5FF7F010000004C
:103D3000D0C5FF7FB0B0AA8008C6FF7FAE71B28049
:103D4000CCC6FF7F01000000C8C6FF7FAB3F3880B4
:103D500020C7FF7F010000002CC7FF7FB0B0AA8002
:103D600068C7FF7F0100000010C8FF7FAB0EB28064
:103D70007CC8FF7FB0AF088048CBFF7F0100000008
:103D80004CCBFF7FAC3F0380C8CDFF7F010000001C
:103D9000A4CFFF7F00840480B8CFFF7F0100000024
:103DA000B4CFFF7FB0AD048070D2FF7FB0A9048094
:103DB00094D2FF7F44FFFF7F98D2FF7F48FFFF7FB1
:103DC000A4D2FF7F0100000014FBFF7FB0AB08808E
:103DD000C0FBFF7F00FFFF7FECFBFF7F04FFFF7F47
:103DE0001CFCFF7FB0A9108068FCFF7FB0AA0B808D
:103DF000D0FCFF7FF8FEFF7FE0FCFF7F01000000AA
:043E00003501000880
:043E040011010008A0
:103E08000100000000A24A04AAAAAAAA0100000010
:103E18001400002000000000000000000000000066
:103E2800000000000000000000000000000000008A
:103E3800000000000000000000000000000000007A
:103E4800000000000000000000000000000000006A
:103E5800000000000000000000000000000000005A
:103E6800000000000000000000000000000000004A
:043E78000000000046
:0400000508003AD9DC
:00000001FF
